{
  "abi": [
    {
      "inputs": [
        {
          "internalType": "address",
          "name": "_vault",
          "type": "address"
        }
      ],
      "stateMutability": "nonpayable",
      "type": "constructor"
    },
    {
      "anonymous": false,
      "inputs": [
        {
          "indexed": false,
          "internalType": "uint256",
          "name": "profit",
          "type": "uint256"
        },
        {
          "indexed": false,
          "internalType": "uint256",
          "name": "loss",
          "type": "uint256"
        },
        {
          "indexed": false,
          "internalType": "uint256",
          "name": "debtPayment",
          "type": "uint256"
        },
        {
          "indexed": false,
          "internalType": "uint256",
          "name": "debtOutstanding",
          "type": "uint256"
        }
      ],
      "name": "Harvested",
      "type": "event"
    },
    {
      "anonymous": false,
      "inputs": [
        {
          "indexed": false,
          "internalType": "uint256",
          "name": "debtThreshold",
          "type": "uint256"
        }
      ],
      "name": "UpdatedDebtThreshold",
      "type": "event"
    },
    {
      "anonymous": false,
      "inputs": [
        {
          "indexed": false,
          "internalType": "address",
          "name": "newKeeper",
          "type": "address"
        }
      ],
      "name": "UpdatedKeeper",
      "type": "event"
    },
    {
      "anonymous": false,
      "inputs": [
        {
          "indexed": false,
          "internalType": "uint256",
          "name": "profitFactor",
          "type": "uint256"
        }
      ],
      "name": "UpdatedProfitFactor",
      "type": "event"
    },
    {
      "anonymous": false,
      "inputs": [
        {
          "indexed": false,
          "internalType": "uint256",
          "name": "delay",
          "type": "uint256"
        }
      ],
      "name": "UpdatedReportDelay",
      "type": "event"
    },
    {
      "anonymous": false,
      "inputs": [
        {
          "indexed": false,
          "internalType": "address",
          "name": "rewards",
          "type": "address"
        }
      ],
      "name": "UpdatedRewards",
      "type": "event"
    },
    {
      "anonymous": false,
      "inputs": [
        {
          "indexed": false,
          "internalType": "address",
          "name": "newStrategist",
          "type": "address"
        }
      ],
      "name": "UpdatedStrategist",
      "type": "event"
    },
    {
      "inputs": [
        {
          "internalType": "uint256",
          "name": "amount",
          "type": "uint256"
        }
      ],
      "name": "_takeFunds",
      "outputs": [],
      "stateMutability": "nonpayable",
      "type": "function"
    },
    {
      "inputs": [],
      "name": "apiVersion",
      "outputs": [
        {
          "internalType": "string",
          "name": "",
          "type": "string"
        }
      ],
      "stateMutability": "pure",
      "type": "function"
    },
    {
      "inputs": [],
      "name": "debtThreshold",
      "outputs": [
        {
          "internalType": "uint256",
          "name": "",
          "type": "uint256"
        }
      ],
      "stateMutability": "view",
      "type": "function"
    },
    {
      "inputs": [],
      "name": "delegatedAssets",
      "outputs": [
        {
          "internalType": "uint256",
          "name": "",
          "type": "uint256"
        }
      ],
      "stateMutability": "view",
      "type": "function"
    },
    {
      "inputs": [],
      "name": "emergencyExit",
      "outputs": [
        {
          "internalType": "bool",
          "name": "",
          "type": "bool"
        }
      ],
      "stateMutability": "view",
      "type": "function"
    },
    {
      "inputs": [],
      "name": "estimatedTotalAssets",
      "outputs": [
        {
          "internalType": "uint256",
          "name": "",
          "type": "uint256"
        }
      ],
      "stateMutability": "view",
      "type": "function"
    },
    {
      "inputs": [],
      "name": "harvest",
      "outputs": [],
      "stateMutability": "nonpayable",
      "type": "function"
    },
    {
      "inputs": [
        {
          "internalType": "uint256",
          "name": "callCost",
          "type": "uint256"
        }
      ],
      "name": "harvestTrigger",
      "outputs": [
        {
          "internalType": "bool",
          "name": "",
          "type": "bool"
        }
      ],
      "stateMutability": "view",
      "type": "function"
    },
    {
      "inputs": [],
      "name": "isActive",
      "outputs": [
        {
          "internalType": "bool",
          "name": "",
          "type": "bool"
        }
      ],
      "stateMutability": "view",
      "type": "function"
    },
    {
      "inputs": [],
      "name": "keeper",
      "outputs": [
        {
          "internalType": "address",
          "name": "",
          "type": "address"
        }
      ],
      "stateMutability": "view",
      "type": "function"
    },
    {
      "inputs": [
        {
          "internalType": "address",
          "name": "_newStrategy",
          "type": "address"
        }
      ],
      "name": "migrate",
      "outputs": [],
      "stateMutability": "nonpayable",
      "type": "function"
    },
    {
      "inputs": [],
      "name": "minReportDelay",
      "outputs": [
        {
          "internalType": "uint256",
          "name": "",
          "type": "uint256"
        }
      ],
      "stateMutability": "view",
      "type": "function"
    },
    {
      "inputs": [],
      "name": "name",
      "outputs": [
        {
          "internalType": "string",
          "name": "",
          "type": "string"
        }
      ],
      "stateMutability": "view",
      "type": "function"
    },
    {
      "inputs": [],
      "name": "profitFactor",
      "outputs": [
        {
          "internalType": "uint256",
          "name": "",
          "type": "uint256"
        }
      ],
      "stateMutability": "view",
      "type": "function"
    },
    {
      "inputs": [],
      "name": "rewards",
      "outputs": [
        {
          "internalType": "address",
          "name": "",
          "type": "address"
        }
      ],
      "stateMutability": "view",
      "type": "function"
    },
    {
      "inputs": [
        {
          "internalType": "uint256",
          "name": "_debtThreshold",
          "type": "uint256"
        }
      ],
      "name": "setDebtThreshold",
      "outputs": [],
      "stateMutability": "nonpayable",
      "type": "function"
    },
    {
      "inputs": [],
      "name": "setEmergencyExit",
      "outputs": [],
      "stateMutability": "nonpayable",
      "type": "function"
    },
    {
      "inputs": [
        {
          "internalType": "address",
          "name": "_keeper",
          "type": "address"
        }
      ],
      "name": "setKeeper",
      "outputs": [],
      "stateMutability": "nonpayable",
      "type": "function"
    },
    {
      "inputs": [
        {
          "internalType": "uint256",
          "name": "_delay",
          "type": "uint256"
        }
      ],
      "name": "setMinReportDelay",
      "outputs": [],
      "stateMutability": "nonpayable",
      "type": "function"
    },
    {
      "inputs": [
        {
          "internalType": "uint256",
          "name": "_profitFactor",
          "type": "uint256"
        }
      ],
      "name": "setProfitFactor",
      "outputs": [],
      "stateMutability": "nonpayable",
      "type": "function"
    },
    {
      "inputs": [
        {
          "internalType": "address",
          "name": "_rewards",
          "type": "address"
        }
      ],
      "name": "setRewards",
      "outputs": [],
      "stateMutability": "nonpayable",
      "type": "function"
    },
    {
      "inputs": [
        {
          "internalType": "address",
          "name": "_strategist",
          "type": "address"
        }
      ],
      "name": "setStrategist",
      "outputs": [],
      "stateMutability": "nonpayable",
      "type": "function"
    },
    {
      "inputs": [],
      "name": "strategist",
      "outputs": [
        {
          "internalType": "address",
          "name": "",
          "type": "address"
        }
      ],
      "stateMutability": "view",
      "type": "function"
    },
    {
      "inputs": [
        {
          "internalType": "address",
          "name": "_token",
          "type": "address"
        }
      ],
      "name": "sweep",
      "outputs": [],
      "stateMutability": "nonpayable",
      "type": "function"
    },
    {
      "inputs": [],
      "name": "tend",
      "outputs": [],
      "stateMutability": "nonpayable",
      "type": "function"
    },
    {
      "inputs": [
        {
          "internalType": "uint256",
          "name": "callCost",
          "type": "uint256"
        }
      ],
      "name": "tendTrigger",
      "outputs": [
        {
          "internalType": "bool",
          "name": "",
          "type": "bool"
        }
      ],
      "stateMutability": "view",
      "type": "function"
    },
    {
      "inputs": [],
      "name": "vault",
      "outputs": [
        {
          "internalType": "contract VaultAPI",
          "name": "",
          "type": "address"
        }
      ],
      "stateMutability": "view",
      "type": "function"
    },
    {
      "inputs": [],
      "name": "want",
      "outputs": [
        {
          "internalType": "contract IERC20",
          "name": "",
          "type": "address"
        }
      ],
      "stateMutability": "view",
      "type": "function"
    },
    {
      "inputs": [
        {
          "internalType": "uint256",
          "name": "_amountNeeded",
          "type": "uint256"
        }
      ],
      "name": "withdraw",
      "outputs": [
        {
          "internalType": "uint256",
          "name": "_loss",
          "type": "uint256"
        }
      ],
      "stateMutability": "nonpayable",
      "type": "function"
    }
  ],
  "bytecode": "608060405262015180600555606460065560006007553480156200002257600080fd5b5060405162001e1038038062001e108339810160408190526200004591620001ae565b600080546001600160a01b0319166001600160a01b03838116919091179182905560408051637e062a3560e11b8152905184939092169163fc0c546a91600480820192602092909190829003018186803b158015620000a357600080fd5b505afa158015620000b8573d6000803e3d6000fd5b505050506040513d601f19601f82011682018060405250810190620000de9190620001ae565b600480546001600160a01b0319166001600160a01b039283161780825560405163095ea7b360e01b815292169163095ea7b39162000123918591600019910162000200565b602060405180830381600087803b1580156200013e57600080fd5b505af115801562000153573d6000803e3d6000fd5b505050506040513d601f19601f82011682018060405250810190620001799190620001de565b505060018054336001600160a01b03199182168117909255600280548216831790556003805490911690911790555062000219565b600060208284031215620001c0578081fd5b81516001600160a01b0381168114620001d7578182fd5b9392505050565b600060208284031215620001f0578081fd5b81518015158114620001d7578182fd5b6001600160a01b03929092168252602082015260400190565b611be780620002296000396000f3fe608060405234801561001057600080fd5b50600436106101cf5760003560e01c8063748747e611610104578063c7b9d530116100a2578063efbb5cb011610071578063efbb5cb014610354578063fba04a441461035c578063fbfa77cf1461036f578063fcf2d0ad14610377576101cf565b8063c7b9d53014610308578063ce5494bb1461031b578063ec38a8621461032e578063ed882c2b14610341576101cf565b806391397ab4116100de57806391397ab4146102dd57806395e80c50146102f05780639ec5a894146102f8578063aced166114610300576101cf565b8063748747e6146102ba5780638cdfe166146102cd5780638e6350e2146102d5576101cf565b80632582941011610171578063440368a31161014b578063440368a31461028f5780634641257d146102975780635641ec031461029f578063650d1880146102a7576101cf565b806325829410146102615780632e1a7d4d1461026957806339a172a81461027c576101cf565b80631d12f28b116101ad5780631d12f28b1461021a5780631f1fcd511461022f5780631fe4a6861461024457806322f3e2d41461024c576101cf565b806301681a62146101d457806306fdde03146101e95780630f969b8714610207575b600080fd5b6101e76101e236600461183d565b61037f565b005b6101f1610589565b6040516101fe91906119bd565b60405180910390f35b6101e7610215366004611920565b6105b7565b610222610644565b6040516101fe9190611b36565b61023761064a565b6040516101fe9190611985565b610237610659565b610254610668565b6040516101fe91906119b2565b6101f1610706565b610222610277366004611920565b610725565b6101e761028a366004611920565b6107eb565b6101e761086d565b6101e7610954565b610254610b83565b6102546102b5366004611920565b610b8c565b6101e76102c836600461183d565b610b94565b610222610c2c565b610222610c32565b6101e76102eb366004611920565b610c37565b610222610cb9565b610237610cbf565b610237610cce565b6101e761031636600461183d565b610cdd565b6101e761032936600461183d565b610d75565b6101e761033c36600461183d565b610f55565b61025461034f366004611920565b610fca565b61022261122f565b6101e761036a366004611920565b6112b1565b6102376112e2565b6101e76112f1565b6103876113a6565b6001600160a01b0316336001600160a01b0316146103c05760405162461bcd60e51b81526004016103b790611aed565b60405180910390fd5b6004546001600160a01b03828116911614156103ee5760405162461bcd60e51b81526004016103b790611a15565b6000546001600160a01b038281169116141561041c5760405162461bcd60e51b81526004016103b790611acc565b606061042661142d565b905060005b81518110156104815781818151811061044057fe5b60200260200101516001600160a01b0316836001600160a01b031614156104795760405162461bcd60e51b81526004016103b790611b12565b60010161042b565b50816001600160a01b031663a9059cbb6104996113a6565b6040516370a0823160e01b81526001600160a01b038616906370a08231906104c5903090600401611985565b60206040518083038186803b1580156104dd57600080fd5b505afa1580156104f1573d6000803e3d6000fd5b505050506040513d601f19601f820116820180604052508101906105159190611938565b6040518363ffffffff1660e01b8152600401610532929190611999565b602060405180830381600087803b15801561054c57600080fd5b505af1158015610560573d6000803e3d6000fd5b505050506040513d601f19601f820116820180604052508101906105849190611875565b505050565b6060610593610706565b6040516020016105a39190611950565b604051602081830303815290604052905090565b6001546001600160a01b03163314806105e857506105d36113a6565b6001600160a01b0316336001600160a01b0316145b6106045760405162461bcd60e51b81526004016103b790611aed565b60078190556040517fa68ba126373d04c004c5748c300c9fca12bd444b3d4332e261f3bd2bac4a860090610639908390611b36565b60405180910390a150565b60075481565b6004546001600160a01b031681565b6001546001600160a01b031681565b600080546040516339ebf82360e01b815282916001600160a01b0316906339ebf82390610699903090600401611985565b6101006040518083038186803b1580156106b257600080fd5b505afa1580156106c6573d6000803e3d6000fd5b505050506040513d601f19601f820116820180604052508101906106ea9190611895565b604001511180610701575060006106ff61122f565b115b905090565b604080518082019091526005815264181719171960d91b602082015290565b600080546001600160a01b031633146107505760405162461bcd60e51b81526004016103b790611aac565b600061075b8361143f565b6004805460405163a9059cbb60e01b81529295509293506001600160a01b039092169163a9059cbb91610792913391869101611999565b602060405180830381600087803b1580156107ac57600080fd5b505af11580156107c0573d6000803e3d6000fd5b505050506040513d601f19601f820116820180604052508101906107e49190611875565b5050919050565b6001546001600160a01b031633148061081c57506108076113a6565b6001600160a01b0316336001600160a01b0316145b6108385760405162461bcd60e51b81526004016103b790611aed565b60058190556040517f4aaf232568bff365c53cad69bdb6e83014e79df80216ceba8ee01769723dfd6890610639908390611b36565b6003546001600160a01b031633148061089057506001546001600160a01b031633145b806108b3575061089e6113a6565b6001600160a01b0316336001600160a01b0316145b6108cf5760405162461bcd60e51b81526004016103b790611aed565b6000546040805163bf3759b560e01b81529051610952926001600160a01b03169163bf3759b5916004808301926020929190829003018186803b15801561091557600080fd5b505afa158015610929573d6000803e3d6000fd5b505050506040513d601f19601f8201168201806040525081019061094d9190611938565b6114ed565b565b6003546001600160a01b031633148061097757506001546001600160a01b031633145b8061099a57506109856113a6565b6001600160a01b0316336001600160a01b0316145b6109b65760405162461bcd60e51b81526004016103b790611aed565b60008060008060009054906101000a90046001600160a01b03166001600160a01b031663bf3759b56040518163ffffffff1660e01b815260040160206040518083038186803b158015610a0857600080fd5b505afa158015610a1c573d6000803e3d6000fd5b505050506040513d601f19601f82011682018060405250810190610a409190611938565b60085490915060009060ff1615610a96576000610a5b61122f565b9050610a74838211610a6d5783610a6f565b815b61143f565b9450915082821115610a9057610a8a82846114f0565b94508291505b50610aa7565b610a9f8261153b565b919550935090505b6000546040516328766ebf60e21b81526001600160a01b039091169063a1d9bafc90610adb90879087908690600401611b3f565b602060405180830381600087803b158015610af557600080fd5b505af1158015610b09573d6000803e3d6000fd5b505050506040513d601f19601f82011682018060405250810190610b2d9190611938565b9150610b376116ae565b610b40826114ed565b7f4c0f499ffe6befa0ca7c826b0916cf87bea98de658013e76938489368d60d50984848385604051610b759493929190611b55565b60405180910390a150505050565b60085460ff1681565b60005b919050565b6001546001600160a01b0316331480610bc55750610bb06113a6565b6001600160a01b0316336001600160a01b0316145b610be15760405162461bcd60e51b81526004016103b790611aed565b600380546001600160a01b0319166001600160a01b0383161790556040517f2f202ddb4a2e345f6323ed90f8fc8559d770a7abbbeee84dde8aca3351fe715490610639908390611985565b60065481565b600090565b6001546001600160a01b0316331480610c685750610c536113a6565b6001600160a01b0316336001600160a01b0316145b610c845760405162461bcd60e51b81526004016103b790611aed565b60068190556040517fd94596337df4c2f0f44d30a7fc5db1c7bb60d9aca4185ed77c6fd96eb45ec29890610639908390611b36565b60055481565b6002546001600160a01b031681565b6003546001600160a01b031681565b6001546001600160a01b0316331480610d0e5750610cf96113a6565b6001600160a01b0316336001600160a01b0316145b610d2a5760405162461bcd60e51b81526004016103b790611aed565b600180546001600160a01b0319166001600160a01b0383161790556040517f352ececae6d7d1e6d26bcf2c549dfd55be1637e9b22dc0cf3b71ddb36097a6b490610639908390611985565b6000546001600160a01b0316331480610da65750610d916113a6565b6001600160a01b0316336001600160a01b0316145b610daf57600080fd5b60008054906101000a90046001600160a01b03166001600160a01b0316816001600160a01b031663fbfa77cf6040518163ffffffff1660e01b815260040160206040518083038186803b158015610e0557600080fd5b505afa158015610e19573d6000803e3d6000fd5b505050506040513d601f19601f82011682018060405250810190610e3d9190611859565b6001600160a01b031614610e5057600080fd5b610e59816114ed565b600480546040516370a0823160e01b81526001600160a01b039091169163a9059cbb91849184916370a0823191610e9291309101611985565b60206040518083038186803b158015610eaa57600080fd5b505afa158015610ebe573d6000803e3d6000fd5b505050506040513d601f19601f82011682018060405250810190610ee29190611938565b6040518363ffffffff1660e01b8152600401610eff929190611999565b602060405180830381600087803b158015610f1957600080fd5b505af1158015610f2d573d6000803e3d6000fd5b505050506040513d601f19601f82011682018060405250810190610f519190611875565b5050565b6001546001600160a01b03163314610f7f5760405162461bcd60e51b81526004016103b7906119f0565b600280546001600160a01b0319166001600160a01b0383161790556040517fafbb66abf8f3b719799940473a4052a3717cdd8e40fb6c8a3faadab316b1a06990610639908390611985565b6000610fd46117f8565b6000546040516339ebf82360e01b81526001600160a01b03909116906339ebf82390611004903090600401611985565b6101006040518083038186803b15801561101d57600080fd5b505afa158015611031573d6000803e3d6000fd5b505050506040513d601f19601f820116820180604052508101906110559190611895565b905080602001516000141561106e576000915050610b8f565b60055460808201516110819042906114f0565b10611090576001915050610b8f565b60008060009054906101000a90046001600160a01b03166001600160a01b031663bf3759b56040518163ffffffff1660e01b815260040160206040518083038186803b1580156110df57600080fd5b505afa1580156110f3573d6000803e3d6000fd5b505050506040513d601f19601f820116820180604052508101906111179190611938565b9050801561112a57600192505050610b8f565b600061113461122f565b90508260a001516111506007548361176d90919063ffffffff16565b10156111625760019350505050610b8f565b60008360a001518211156111835760a08401516111809083906114f0565b90505b60008060009054906101000a90046001600160a01b03166001600160a01b031663112c1f9b6040518163ffffffff1660e01b815260040160206040518083038186803b1580156111d257600080fd5b505afa1580156111e6573d6000803e3d6000fd5b505050506040513d601f19601f8201168201806040525081019061120a9190611938565b9050611216818361176d565b6006546112239089611792565b10979650505050505050565b600480546040516370a0823160e01b81526000926001600160a01b03909216916370a082319161126191309101611985565b60206040518083038186803b15801561127957600080fd5b505afa15801561128d573d6000803e3d6000fd5b505050506040513d601f19601f820116820180604052508101906107019190611938565b6004805460405163a9059cbb60e01b81526001600160a01b039091169163a9059cbb91610eff913391869101611999565b6000546001600160a01b031681565b6001546001600160a01b0316331480611322575061130d6113a6565b6001600160a01b0316336001600160a01b0316145b61133e5760405162461bcd60e51b81526004016103b790611aed565b6008805460ff19166001179055600080546040805163507257cd60e11b815290516001600160a01b039092169263a0e4af9a9260048084019382900301818387803b15801561138c57600080fd5b505af11580156113a0573d6000803e3d6000fd5b50505050565b60008060009054906101000a90046001600160a01b03166001600160a01b0316635aa6e6756040518163ffffffff1660e01b815260040160206040518083038186803b1580156113f557600080fd5b505afa158015611409573d6000803e3d6000fd5b505050506040513d601f19601f820116820180604052508101906107019190611859565b60408051600081526020810190915290565b600480546040516370a0823160e01b8152600092839283926001600160a01b03909116916370a082319161147591309101611985565b60206040518083038186803b15801561148d57600080fd5b505afa1580156114a1573d6000803e3d6000fd5b505050506040513d601f19601f820116820180604052508101906114c59190611938565b9050808411156114e3579150816114dc84826114f0565b91506114e7565b8392505b50915091565b50565b600061153283836040518060400160405280601e81526020017f536166654d6174683a207375627472616374696f6e206f766572666c6f7700008152506117cc565b90505b92915050565b600480546040516370a0823160e01b81526000928392839283926001600160a01b03909216916370a082319161157391309101611985565b60206040518083038186803b15801561158b57600080fd5b505afa15801561159f573d6000803e3d6000fd5b505050506040513d601f19601f820116820180604052508101906115c39190611938565b600080546040516339ebf82360e01b815292935090916001600160a01b03909116906339ebf823906115f9903090600401611985565b6101006040518083038186803b15801561161257600080fd5b505afa158015611626573d6000803e3d6000fd5b505050506040513d601f19601f8201168201806040525081019061164a9190611895565b60a0015190508582111561166c5785925061166582846114f0565b9150611673565b9091506000905b61167d81846114f0565b9050808211156116985761169182826114f0565b94506116a5565b6116a281836114f0565b93505b50509193909250565b600080546040516370a0823160e01b81526001600160a01b03909116906370a08231906116df903090600401611985565b60206040518083038186803b1580156116f757600080fd5b505afa15801561170b573d6000803e3d6000fd5b505050506040513d601f19601f8201168201806040525081019061172f9190611938565b905080156114ed5760005460025460405163a9059cbb60e01b81526001600160a01b039283169263a9059cbb92610eff929116908590600401611999565b6000828201838110156115325760405162461bcd60e51b81526004016103b790611a34565b6000826117a157506000611535565b828202828482816117ae57fe5b04146115325760405162461bcd60e51b81526004016103b790611a6b565b600081848411156117f05760405162461bcd60e51b81526004016103b791906119bd565b505050900390565b60405180610100016040528060008152602001600081526020016000815260200160008152602001600081526020016000815260200160008152602001600081525090565b60006020828403121561184e578081fd5b813561153281611b9c565b60006020828403121561186a578081fd5b815161153281611b9c565b600060208284031215611886578081fd5b81518015158114611532578182fd5b60006101008083850312156118a8578182fd5b6040519081019067ffffffffffffffff821181831017156118c7578283fd5b81604052835181526020840151602082015260408401516040820152606084015160608201526080840151608082015260a084015160a082015260c084015160c082015260e084015160e0820152809250505092915050565b600060208284031215611931578081fd5b5035919050565b600060208284031215611949578081fd5b5051919050565b60006c02a32b9ba29ba3930ba32b3bc9609d1b8252825161197881600d850160208701611b70565b91909101600d0192915050565b6001600160a01b0391909116815260200190565b6001600160a01b03929092168252602082015260400190565b901515815260200190565b60006020825282518060208401526119dc816040850160208701611b70565b601f01601f19169190910160400192915050565b6020808252600b908201526a085cdd1c985d1959da5cdd60aa1b604082015260600190565b602080825260059082015264085dd85b9d60da1b604082015260600190565b6020808252601b908201527f536166654d6174683a206164646974696f6e206f766572666c6f770000000000604082015260600190565b60208082526021908201527f536166654d6174683a206d756c7469706c69636174696f6e206f766572666c6f6040820152607760f81b606082015260800190565b602080825260069082015265085d985d5b1d60d21b604082015260600190565b6020808252600790820152662173686172657360c81b604082015260600190565b6020808252600b908201526a08585d5d1a1bdc9a5e995960aa1b604082015260600190565b6020808252600a9082015269085c1c9bdd1958dd195960b21b604082015260600190565b90815260200190565b9283526020830191909152604082015260600190565b93845260208401929092526040830152606082015260800190565b60005b83811015611b8b578181015183820152602001611b73565b838111156113a05750506000910152565b6001600160a01b03811681146114ed57600080fdfea26469706673582212203e9f0bf008199a2c309194f19fe6f3258200b0b50955d2aa62a54e8441ed1e2164736f6c634300060c0033",
  "bytecodeSha1": "ebdd2d8f2ff3213b5645b0ffe49aaef69719b521",
  "compiler": {
    "evm_version": "istanbul",
    "optimizer": {
      "enabled": true,
      "runs": 200
    },
    "version": "0.6.12"
  },
  "contractName": "TestStrategy",
  "language": "Solidity",
  "natspec": {
    "kind": "dev",
    "methods": {
      "apiVersion()": {
        "details": "The Strategy's version must match the Vault's `API_VERSION`.",
        "notice": "Used to track which version of `StrategyAPI` this Strategy  implements.",
        "returns": {
          "_0": "A string which holds the current API version of this contract."
        }
      },
      "delegatedAssets()": {
        "details": "You can override this field to set it to a non-zero value if some of the assets of this  Strategy is somehow delegated inside another part of of Yearn's ecosystem e.g. another Vault.  Note that this value must be strictly less than or equal to the amount provided by  `estimatedTotalAssets()` below, as the TVL calc will be total assets minus delegated assets.",
        "notice": "The amount (priced in want) of the total assets managed by this strategy should not count  towards Yearn's TVL calculations.",
        "returns": {
          "_0": "The amount of assets this strategy manages that should not be included in Yearn's Total Value  Locked (TVL) calculation across it's ecosystem."
        }
      },
      "estimatedTotalAssets()": {
        "details": "Care must be taken in using this function, since it relies on external  systems, which could be manipulated by the attacker to give an inflated  (or reduced) value produced by this function, based on current on-chain  conditions (e.g. this function is possible to influence through  flashloan attacks, oracle manipulations, or other DeFi attack  mechanisms).  It is up to governance to use this function to correctly order this  Strategy relative to its peers in the withdrawal queue to minimize  losses for the Vault based on sudden withdrawals. This value should be  higher than the total debt of the Strategy and higher than its expected  value to be \"safe\".",
        "notice": "Provide an accurate estimate for the total amount of assets  (principle + return) that this Strategy is currently managing,  denominated in terms of `want` tokens.  This total should be \"realizable\" e.g. the total value that could  *actually* be obtained from this Strategy if it were to divest its  entire position based on current on-chain conditions.",
        "returns": {
          "_0": "The estimated total assets in this Strategy."
        }
      },
      "harvest()": {
        "details": "When `harvest()` is called, the Strategy reports to the Vault (via  `vault.report()`), so in some cases `harvest()` must be called in order  to take in profits, to borrow newly available funds from the Vault, or  otherwise adjust its position. In other cases `harvest()` must be  called to report to the Vault on the Strategy's position, especially if  any losses have occurred.",
        "notice": "Harvests the Strategy, recognizing any profits or losses and adjusting  the Strategy's position.  In the rare case the Strategy is in emergency shutdown, this will exit  the Strategy's position.  This may only be called by governance, the strategist, or the keeper."
      },
      "harvestTrigger(uint256)": {
        "details": "`callCost` must be priced in terms of `want`.  This call and `tendTrigger` should never return `true` at the  same time.  See `minReportDelay`, `profitFactor`, `debtThreshold` to adjust the  strategist-controlled parameters that will influence whether this call  returns `true` or not. These parameters will be used in conjunction  with the parameters reported to the Vault (see `params`) to determine  if calling `harvest()` is merited.  It is expected that an external system will check `harvestTrigger()`.  This could be a script run off a desktop or cloud bot (e.g.  https://github.com/iearn-finance/yearn-vaults/blob/master/scripts/keep.py),  or via an integration with the Keep3r network (e.g.  https://github.com/Macarse/GenericKeep3rV2/blob/master/contracts/keep3r/GenericKeep3rV2.sol).",
        "notice": "Provide a signal to the keeper that `harvest()` should be called. The  keeper will provide the estimated gas cost that they would pay to call  `harvest()`, and this function should use that estimate to make a  determination if calling it is \"worth it\" for the keeper. This is not  the only consideration into issuing this trigger, for example if the  position would be negatively affected if `harvest()` is not called  shortly, then this can return `true` even if the keeper might be \"at a  loss\" (keepers are always reimbursed by Yearn).",
        "params": {
          "callCost": "The keeper's estimated cast cost to call `harvest()`."
        },
        "returns": {
          "_0": "`true` if `harvest()` should be called, `false` otherwise."
        }
      },
      "migrate(address)": {
        "details": "The new Strategy's Vault must be the same as this Strategy's Vault.",
        "notice": "Transfers all `want` from this Strategy to `_newStrategy`.  This may only be called by governance or the Vault.",
        "params": {
          "_newStrategy": "The Strategy to migrate to."
        }
      },
      "name()": {
        "details": "You can use this field to manage the \"version\" of this Strategy, e.g.  `StrategySomethingOrOtherV1`. However, \"API Version\" is managed by  `apiVersion()` function above.",
        "notice": "This Strategy's name.",
        "returns": {
          "_0": "This Strategy's name."
        }
      },
      "setDebtThreshold(uint256)": {
        "notice": "Sets how far the Strategy can go into loss without a harvest and report  being required.  By default this is 0, meaning any losses would cause a harvest which  will subsequently report the loss to the Vault for tracking. (See  `harvestTrigger()` for more details.)  This may only be called by governance or the strategist.",
        "params": {
          "_debtThreshold": "How big of a loss this Strategy may carry without being required to report to the Vault."
        }
      },
      "setEmergencyExit()": {
        "details": "See `vault.setEmergencyShutdown()` and `harvest()` for further details.",
        "notice": "Activates emergency exit. Once activated, the Strategy will exit its  position upon the next harvest, depositing all funds into the Vault as  quickly as is reasonable given on-chain conditions.  This may only be called by governance or the strategist."
      },
      "setKeeper(address)": {
        "notice": "Used to change `keeper`.  `keeper` is the only address that may call `tend()` or `harvest()`,  other than `governance()` or `strategist`. However, unlike  `governance()` or `strategist`, `keeper` may *only* call `tend()`  and `harvest()`, and no other authorized functions, following the  principle of least privilege.  This may only be called by governance or the strategist.",
        "params": {
          "_keeper": "The new address to assign as `keeper`."
        }
      },
      "setMinReportDelay(uint256)": {
        "notice": "Used to change `minReportDelay`. `minReportDelay` is the minimum number  of blocks that should pass before `harvest()` is called.  For external keepers (such as the Keep3r network), this is the minimum  time between jobs, to prevent excessive costs. (see `harvestTrigger()`  for more details.)  This may only be called by governance or the strategist.",
        "params": {
          "_delay": "The minimum number of blocks to wait between harvests."
        }
      },
      "setProfitFactor(uint256)": {
        "notice": "Used to change `profitFactor`. `profitFactor` is used to determine  if it's worthwhile to harvest, given gas costs. (See `harvestTrigger()`  for more details.)  This may only be called by governance or the strategist.",
        "params": {
          "_profitFactor": "A ratio to multiply anticipated `harvest()` gas cost against."
        }
      },
      "setRewards(address)": {
        "notice": "Used to change `rewards`. Any distributed rewards will cease flowing  to the old address and begin flowing to this address once the change  is in effect.  This will not change any Strategy reports in progress, only  new reports made after this change goes into effect.  This may only be called by the strategist.",
        "params": {
          "_rewards": "The address to use for collecting rewards."
        }
      },
      "setStrategist(address)": {
        "notice": "Used to change `strategist`.  This may only be called by governance or the existing strategist.",
        "params": {
          "_strategist": "The new address to assign as `strategist`."
        }
      },
      "sweep(address)": {
        "details": "Implement `protectedTokens()` to specify any additional tokens that  should be protected from sweeping in addition to `want`.",
        "notice": "Removes tokens from this Strategy that are not the type of tokens  managed by this Strategy. This may be used in case of accidentally  sending the wrong kind of token to this Strategy.  Tokens will be sent to `governance()`.  This will fail if an attempt is made to sweep `want`, or any tokens  that are protected by this Strategy.  This may only be called by governance.",
        "params": {
          "_token": "The token to transfer out of this vault."
        }
      },
      "tend()": {
        "notice": "Adjust the Strategy's position. The purpose of tending isn't to  realize gains, but to maximize yield by reinvesting any returns.  See comments on `adjustPosition()`.  This may only be called by governance, the strategist, or the keeper."
      },
      "tendTrigger(uint256)": {
        "details": "`callCost` must be priced in terms of `want`.  This call and `harvestTrigger()` should never return `true` at the same  time.",
        "notice": "Provide a signal to the keeper that `tend()` should be called. The  keeper will provide the estimated gas cost that they would pay to call  `tend()`, and this function should use that estimate to make a  determination if calling it is \"worth it\" for the keeper. This is not  the only consideration into issuing this trigger, for example if the  position would be negatively affected if `tend()` is not called  shortly, then this can return `true` even if the keeper might be  \"at a loss\" (keepers are always reimbursed by Yearn).",
        "params": {
          "callCost": "The keeper's estimated cast cost to call `tend()`."
        },
        "returns": {
          "_0": "`true` if `tend()` should be called, `false` otherwise."
        }
      },
      "withdraw(uint256)": {
        "notice": "Withdraws `_amountNeeded` to `vault`.  This may only be called by the Vault.",
        "params": {
          "_amountNeeded": "How much `want` to withdraw."
        },
        "returns": {
          "_loss": "Any realized losses"
        }
      }
    },
    "version": 1
  },
  "opcodes": "PUSH1 0x80 PUSH1 0x40 MSTORE CALLVALUE DUP1 ISZERO PUSH2 0x10 JUMPI PUSH1 0x0 DUP1 REVERT JUMPDEST POP PUSH1 0x4 CALLDATASIZE LT PUSH2 0x1CF JUMPI PUSH1 0x0 CALLDATALOAD PUSH1 0xE0 SHR DUP1 PUSH4 0x748747E6 GT PUSH2 0x104 JUMPI DUP1 PUSH4 0xC7B9D530 GT PUSH2 0xA2 JUMPI DUP1 PUSH4 0xEFBB5CB0 GT PUSH2 0x71 JUMPI DUP1 PUSH4 0xEFBB5CB0 EQ PUSH2 0x354 JUMPI DUP1 PUSH4 0xFBA04A44 EQ PUSH2 0x35C JUMPI DUP1 PUSH4 0xFBFA77CF EQ PUSH2 0x36F JUMPI DUP1 PUSH4 0xFCF2D0AD EQ PUSH2 0x377 JUMPI PUSH2 0x1CF JUMP JUMPDEST DUP1 PUSH4 0xC7B9D530 EQ PUSH2 0x308 JUMPI DUP1 PUSH4 0xCE5494BB EQ PUSH2 0x31B JUMPI DUP1 PUSH4 0xEC38A862 EQ PUSH2 0x32E JUMPI DUP1 PUSH4 0xED882C2B EQ PUSH2 0x341 JUMPI PUSH2 0x1CF JUMP JUMPDEST DUP1 PUSH4 0x91397AB4 GT PUSH2 0xDE JUMPI DUP1 PUSH4 0x91397AB4 EQ PUSH2 0x2DD JUMPI DUP1 PUSH4 0x95E80C50 EQ PUSH2 0x2F0 JUMPI DUP1 PUSH4 0x9EC5A894 EQ PUSH2 0x2F8 JUMPI DUP1 PUSH4 0xACED1661 EQ PUSH2 0x300 JUMPI PUSH2 0x1CF JUMP JUMPDEST DUP1 PUSH4 0x748747E6 EQ PUSH2 0x2BA JUMPI DUP1 PUSH4 0x8CDFE166 EQ PUSH2 0x2CD JUMPI DUP1 PUSH4 0x8E6350E2 EQ PUSH2 0x2D5 JUMPI PUSH2 0x1CF JUMP JUMPDEST DUP1 PUSH4 0x25829410 GT PUSH2 0x171 JUMPI DUP1 PUSH4 0x440368A3 GT PUSH2 0x14B JUMPI DUP1 PUSH4 0x440368A3 EQ PUSH2 0x28F JUMPI DUP1 PUSH4 0x4641257D EQ PUSH2 0x297 JUMPI DUP1 PUSH4 0x5641EC03 EQ PUSH2 0x29F JUMPI DUP1 PUSH4 0x650D1880 EQ PUSH2 0x2A7 JUMPI PUSH2 0x1CF JUMP JUMPDEST DUP1 PUSH4 0x25829410 EQ PUSH2 0x261 JUMPI DUP1 PUSH4 0x2E1A7D4D EQ PUSH2 0x269 JUMPI DUP1 PUSH4 0x39A172A8 EQ PUSH2 0x27C JUMPI PUSH2 0x1CF JUMP JUMPDEST DUP1 PUSH4 0x1D12F28B GT PUSH2 0x1AD JUMPI DUP1 PUSH4 0x1D12F28B EQ PUSH2 0x21A JUMPI DUP1 PUSH4 0x1F1FCD51 EQ PUSH2 0x22F JUMPI DUP1 PUSH4 0x1FE4A686 EQ PUSH2 0x244 JUMPI DUP1 PUSH4 0x22F3E2D4 EQ PUSH2 0x24C JUMPI PUSH2 0x1CF JUMP JUMPDEST DUP1 PUSH4 0x1681A62 EQ PUSH2 0x1D4 JUMPI DUP1 PUSH4 0x6FDDE03 EQ PUSH2 0x1E9 JUMPI DUP1 PUSH4 0xF969B87 EQ PUSH2 0x207 JUMPI JUMPDEST PUSH1 0x0 DUP1 REVERT JUMPDEST PUSH2 0x1E7 PUSH2 0x1E2 CALLDATASIZE PUSH1 0x4 PUSH2 0x183D JUMP JUMPDEST PUSH2 0x37F JUMP JUMPDEST STOP JUMPDEST PUSH2 0x1F1 PUSH2 0x589 JUMP JUMPDEST PUSH1 0x40 MLOAD PUSH2 0x1FE SWAP2 SWAP1 PUSH2 0x19BD JUMP JUMPDEST PUSH1 0x40 MLOAD DUP1 SWAP2 SUB SWAP1 RETURN JUMPDEST PUSH2 0x1E7 PUSH2 0x215 CALLDATASIZE PUSH1 0x4 PUSH2 0x1920 JUMP JUMPDEST PUSH2 0x5B7 JUMP JUMPDEST PUSH2 0x222 PUSH2 0x644 JUMP JUMPDEST PUSH1 0x40 MLOAD PUSH2 0x1FE SWAP2 SWAP1 PUSH2 0x1B36 JUMP JUMPDEST PUSH2 0x237 PUSH2 0x64A JUMP JUMPDEST PUSH1 0x40 MLOAD PUSH2 0x1FE SWAP2 SWAP1 PUSH2 0x1985 JUMP JUMPDEST PUSH2 0x237 PUSH2 0x659 JUMP JUMPDEST PUSH2 0x254 PUSH2 0x668 JUMP JUMPDEST PUSH1 0x40 MLOAD PUSH2 0x1FE SWAP2 SWAP1 PUSH2 0x19B2 JUMP JUMPDEST PUSH2 0x1F1 PUSH2 0x706 JUMP JUMPDEST PUSH2 0x222 PUSH2 0x277 CALLDATASIZE PUSH1 0x4 PUSH2 0x1920 JUMP JUMPDEST PUSH2 0x725 JUMP JUMPDEST PUSH2 0x1E7 PUSH2 0x28A CALLDATASIZE PUSH1 0x4 PUSH2 0x1920 JUMP JUMPDEST PUSH2 0x7EB JUMP JUMPDEST PUSH2 0x1E7 PUSH2 0x86D JUMP JUMPDEST PUSH2 0x1E7 PUSH2 0x954 JUMP JUMPDEST PUSH2 0x254 PUSH2 0xB83 JUMP JUMPDEST PUSH2 0x254 PUSH2 0x2B5 CALLDATASIZE PUSH1 0x4 PUSH2 0x1920 JUMP JUMPDEST PUSH2 0xB8C JUMP JUMPDEST PUSH2 0x1E7 PUSH2 0x2C8 CALLDATASIZE PUSH1 0x4 PUSH2 0x183D JUMP JUMPDEST PUSH2 0xB94 JUMP JUMPDEST PUSH2 0x222 PUSH2 0xC2C JUMP JUMPDEST PUSH2 0x222 PUSH2 0xC32 JUMP JUMPDEST PUSH2 0x1E7 PUSH2 0x2EB CALLDATASIZE PUSH1 0x4 PUSH2 0x1920 JUMP JUMPDEST PUSH2 0xC37 JUMP JUMPDEST PUSH2 0x222 PUSH2 0xCB9 JUMP JUMPDEST PUSH2 0x237 PUSH2 0xCBF JUMP JUMPDEST PUSH2 0x237 PUSH2 0xCCE JUMP JUMPDEST PUSH2 0x1E7 PUSH2 0x316 CALLDATASIZE PUSH1 0x4 PUSH2 0x183D JUMP JUMPDEST PUSH2 0xCDD JUMP JUMPDEST PUSH2 0x1E7 PUSH2 0x329 CALLDATASIZE PUSH1 0x4 PUSH2 0x183D JUMP JUMPDEST PUSH2 0xD75 JUMP JUMPDEST PUSH2 0x1E7 PUSH2 0x33C CALLDATASIZE PUSH1 0x4 PUSH2 0x183D JUMP JUMPDEST PUSH2 0xF55 JUMP JUMPDEST PUSH2 0x254 PUSH2 0x34F CALLDATASIZE PUSH1 0x4 PUSH2 0x1920 JUMP JUMPDEST PUSH2 0xFCA JUMP JUMPDEST PUSH2 0x222 PUSH2 0x122F JUMP JUMPDEST PUSH2 0x1E7 PUSH2 0x36A CALLDATASIZE PUSH1 0x4 PUSH2 0x1920 JUMP JUMPDEST PUSH2 0x12B1 JUMP JUMPDEST PUSH2 0x237 PUSH2 0x12E2 JUMP JUMPDEST PUSH2 0x1E7 PUSH2 0x12F1 JUMP JUMPDEST PUSH2 0x387 PUSH2 0x13A6 JUMP JUMPDEST PUSH1 0x1 PUSH1 0x1 PUSH1 0xA0 SHL SUB AND CALLER PUSH1 0x1 PUSH1 0x1 PUSH1 0xA0 SHL SUB AND EQ PUSH2 0x3C0 JUMPI PUSH1 0x40 MLOAD PUSH3 0x461BCD PUSH1 0xE5 SHL DUP2 MSTORE PUSH1 0x4 ADD PUSH2 0x3B7 SWAP1 PUSH2 0x1AED JUMP JUMPDEST PUSH1 0x40 MLOAD DUP1 SWAP2 SUB SWAP1 REVERT JUMPDEST PUSH1 0x4 SLOAD PUSH1 0x1 PUSH1 0x1 PUSH1 0xA0 SHL SUB DUP3 DUP2 AND SWAP2 AND EQ ISZERO PUSH2 0x3EE JUMPI PUSH1 0x40 MLOAD PUSH3 0x461BCD PUSH1 0xE5 SHL DUP2 MSTORE PUSH1 0x4 ADD PUSH2 0x3B7 SWAP1 PUSH2 0x1A15 JUMP JUMPDEST PUSH1 0x0 SLOAD PUSH1 0x1 PUSH1 0x1 PUSH1 0xA0 SHL SUB DUP3 DUP2 AND SWAP2 AND EQ ISZERO PUSH2 0x41C JUMPI PUSH1 0x40 MLOAD PUSH3 0x461BCD PUSH1 0xE5 SHL DUP2 MSTORE PUSH1 0x4 ADD PUSH2 0x3B7 SWAP1 PUSH2 0x1ACC JUMP JUMPDEST PUSH1 0x60 PUSH2 0x426 PUSH2 0x142D JUMP JUMPDEST SWAP1 POP PUSH1 0x0 JUMPDEST DUP2 MLOAD DUP2 LT ISZERO PUSH2 0x481 JUMPI DUP2 DUP2 DUP2 MLOAD DUP2 LT PUSH2 0x440 JUMPI INVALID JUMPDEST PUSH1 0x20 MUL PUSH1 0x20 ADD ADD MLOAD PUSH1 0x1 PUSH1 0x1 PUSH1 0xA0 SHL SUB AND DUP4 PUSH1 0x1 PUSH1 0x1 PUSH1 0xA0 SHL SUB AND EQ ISZERO PUSH2 0x479 JUMPI PUSH1 0x40 MLOAD PUSH3 0x461BCD PUSH1 0xE5 SHL DUP2 MSTORE PUSH1 0x4 ADD PUSH2 0x3B7 SWAP1 PUSH2 0x1B12 JUMP JUMPDEST PUSH1 0x1 ADD PUSH2 0x42B JUMP JUMPDEST POP DUP2 PUSH1 0x1 PUSH1 0x1 PUSH1 0xA0 SHL SUB AND PUSH4 0xA9059CBB PUSH2 0x499 PUSH2 0x13A6 JUMP JUMPDEST PUSH1 0x40 MLOAD PUSH4 0x70A08231 PUSH1 0xE0 SHL DUP2 MSTORE PUSH1 0x1 PUSH1 0x1 PUSH1 0xA0 SHL SUB DUP7 AND SWAP1 PUSH4 0x70A08231 SWAP1 PUSH2 0x4C5 SWAP1 ADDRESS SWAP1 PUSH1 0x4 ADD PUSH2 0x1985 JUMP JUMPDEST PUSH1 0x20 PUSH1 0x40 MLOAD DUP1 DUP4 SUB DUP2 DUP7 DUP1 EXTCODESIZE ISZERO DUP1 ISZERO PUSH2 0x4DD JUMPI PUSH1 0x0 DUP1 REVERT JUMPDEST POP GAS STATICCALL ISZERO DUP1 ISZERO PUSH2 0x4F1 JUMPI RETURNDATASIZE PUSH1 0x0 DUP1 RETURNDATACOPY RETURNDATASIZE PUSH1 0x0 REVERT JUMPDEST POP POP POP POP PUSH1 0x40 MLOAD RETURNDATASIZE PUSH1 0x1F NOT PUSH1 0x1F DUP3 ADD AND DUP3 ADD DUP1 PUSH1 0x40 MSTORE POP DUP2 ADD SWAP1 PUSH2 0x515 SWAP2 SWAP1 PUSH2 0x1938 JUMP JUMPDEST PUSH1 0x40 MLOAD DUP4 PUSH4 0xFFFFFFFF AND PUSH1 0xE0 SHL DUP2 MSTORE PUSH1 0x4 ADD PUSH2 0x532 SWAP3 SWAP2 SWAP1 PUSH2 0x1999 JUMP JUMPDEST PUSH1 0x20 PUSH1 0x40 MLOAD DUP1 DUP4 SUB DUP2 PUSH1 0x0 DUP8 DUP1 EXTCODESIZE ISZERO DUP1 ISZERO PUSH2 0x54C JUMPI PUSH1 0x0 DUP1 REVERT JUMPDEST POP GAS CALL ISZERO DUP1 ISZERO PUSH2 0x560 JUMPI RETURNDATASIZE PUSH1 0x0 DUP1 RETURNDATACOPY RETURNDATASIZE PUSH1 0x0 REVERT JUMPDEST POP POP POP POP PUSH1 0x40 MLOAD RETURNDATASIZE PUSH1 0x1F NOT PUSH1 0x1F DUP3 ADD AND DUP3 ADD DUP1 PUSH1 0x40 MSTORE POP DUP2 ADD SWAP1 PUSH2 0x584 SWAP2 SWAP1 PUSH2 0x1875 JUMP JUMPDEST POP POP POP JUMP JUMPDEST PUSH1 0x60 PUSH2 0x593 PUSH2 0x706 JUMP JUMPDEST PUSH1 0x40 MLOAD PUSH1 0x20 ADD PUSH2 0x5A3 SWAP2 SWAP1 PUSH2 0x1950 JUMP JUMPDEST PUSH1 0x40 MLOAD PUSH1 0x20 DUP2 DUP4 SUB SUB DUP2 MSTORE SWAP1 PUSH1 0x40 MSTORE SWAP1 POP SWAP1 JUMP JUMPDEST PUSH1 0x1 SLOAD PUSH1 0x1 PUSH1 0x1 PUSH1 0xA0 SHL SUB AND CALLER EQ DUP1 PUSH2 0x5E8 JUMPI POP PUSH2 0x5D3 PUSH2 0x13A6 JUMP JUMPDEST PUSH1 0x1 PUSH1 0x1 PUSH1 0xA0 SHL SUB AND CALLER PUSH1 0x1 PUSH1 0x1 PUSH1 0xA0 SHL SUB AND EQ JUMPDEST PUSH2 0x604 JUMPI PUSH1 0x40 MLOAD PUSH3 0x461BCD PUSH1 0xE5 SHL DUP2 MSTORE PUSH1 0x4 ADD PUSH2 0x3B7 SWAP1 PUSH2 0x1AED JUMP JUMPDEST PUSH1 0x7 DUP2 SWAP1 SSTORE PUSH1 0x40 MLOAD PUSH32 0xA68BA126373D04C004C5748C300C9FCA12BD444B3D4332E261F3BD2BAC4A8600 SWAP1 PUSH2 0x639 SWAP1 DUP4 SWAP1 PUSH2 0x1B36 JUMP JUMPDEST PUSH1 0x40 MLOAD DUP1 SWAP2 SUB SWAP1 LOG1 POP JUMP JUMPDEST PUSH1 0x7 SLOAD DUP2 JUMP JUMPDEST PUSH1 0x4 SLOAD PUSH1 0x1 PUSH1 0x1 PUSH1 0xA0 SHL SUB AND DUP2 JUMP JUMPDEST PUSH1 0x1 SLOAD PUSH1 0x1 PUSH1 0x1 PUSH1 0xA0 SHL SUB AND DUP2 JUMP JUMPDEST PUSH1 0x0 DUP1 SLOAD PUSH1 0x40 MLOAD PUSH4 0x39EBF823 PUSH1 0xE0 SHL DUP2 MSTORE DUP3 SWAP2 PUSH1 0x1 PUSH1 0x1 PUSH1 0xA0 SHL SUB AND SWAP1 PUSH4 0x39EBF823 SWAP1 PUSH2 0x699 SWAP1 ADDRESS SWAP1 PUSH1 0x4 ADD PUSH2 0x1985 JUMP JUMPDEST PUSH2 0x100 PUSH1 0x40 MLOAD DUP1 DUP4 SUB DUP2 DUP7 DUP1 EXTCODESIZE ISZERO DUP1 ISZERO PUSH2 0x6B2 JUMPI PUSH1 0x0 DUP1 REVERT JUMPDEST POP GAS STATICCALL ISZERO DUP1 ISZERO PUSH2 0x6C6 JUMPI RETURNDATASIZE PUSH1 0x0 DUP1 RETURNDATACOPY RETURNDATASIZE PUSH1 0x0 REVERT JUMPDEST POP POP POP POP PUSH1 0x40 MLOAD RETURNDATASIZE PUSH1 0x1F NOT PUSH1 0x1F DUP3 ADD AND DUP3 ADD DUP1 PUSH1 0x40 MSTORE POP DUP2 ADD SWAP1 PUSH2 0x6EA SWAP2 SWAP1 PUSH2 0x1895 JUMP JUMPDEST PUSH1 0x40 ADD MLOAD GT DUP1 PUSH2 0x701 JUMPI POP PUSH1 0x0 PUSH2 0x6FF PUSH2 0x122F JUMP JUMPDEST GT JUMPDEST SWAP1 POP SWAP1 JUMP JUMPDEST PUSH1 0x40 DUP1 MLOAD DUP1 DUP3 ADD SWAP1 SWAP2 MSTORE PUSH1 0x5 DUP2 MSTORE PUSH5 0x1817191719 PUSH1 0xD9 SHL PUSH1 0x20 DUP3 ADD MSTORE SWAP1 JUMP JUMPDEST PUSH1 0x0 DUP1 SLOAD PUSH1 0x1 PUSH1 0x1 PUSH1 0xA0 SHL SUB AND CALLER EQ PUSH2 0x750 JUMPI PUSH1 0x40 MLOAD PUSH3 0x461BCD PUSH1 0xE5 SHL DUP2 MSTORE PUSH1 0x4 ADD PUSH2 0x3B7 SWAP1 PUSH2 0x1AAC JUMP JUMPDEST PUSH1 0x0 PUSH2 0x75B DUP4 PUSH2 0x143F JUMP JUMPDEST PUSH1 0x4 DUP1 SLOAD PUSH1 0x40 MLOAD PUSH4 0xA9059CBB PUSH1 0xE0 SHL DUP2 MSTORE SWAP3 SWAP6 POP SWAP3 SWAP4 POP PUSH1 0x1 PUSH1 0x1 PUSH1 0xA0 SHL SUB SWAP1 SWAP3 AND SWAP2 PUSH4 0xA9059CBB SWAP2 PUSH2 0x792 SWAP2 CALLER SWAP2 DUP7 SWAP2 ADD PUSH2 0x1999 JUMP JUMPDEST PUSH1 0x20 PUSH1 0x40 MLOAD DUP1 DUP4 SUB DUP2 PUSH1 0x0 DUP8 DUP1 EXTCODESIZE ISZERO DUP1 ISZERO PUSH2 0x7AC JUMPI PUSH1 0x0 DUP1 REVERT JUMPDEST POP GAS CALL ISZERO DUP1 ISZERO PUSH2 0x7C0 JUMPI RETURNDATASIZE PUSH1 0x0 DUP1 RETURNDATACOPY RETURNDATASIZE PUSH1 0x0 REVERT JUMPDEST POP POP POP POP PUSH1 0x40 MLOAD RETURNDATASIZE PUSH1 0x1F NOT PUSH1 0x1F DUP3 ADD AND DUP3 ADD DUP1 PUSH1 0x40 MSTORE POP DUP2 ADD SWAP1 PUSH2 0x7E4 SWAP2 SWAP1 PUSH2 0x1875 JUMP JUMPDEST POP POP SWAP2 SWAP1 POP JUMP JUMPDEST PUSH1 0x1 SLOAD PUSH1 0x1 PUSH1 0x1 PUSH1 0xA0 SHL SUB AND CALLER EQ DUP1 PUSH2 0x81C JUMPI POP PUSH2 0x807 PUSH2 0x13A6 JUMP JUMPDEST PUSH1 0x1 PUSH1 0x1 PUSH1 0xA0 SHL SUB AND CALLER PUSH1 0x1 PUSH1 0x1 PUSH1 0xA0 SHL SUB AND EQ JUMPDEST PUSH2 0x838 JUMPI PUSH1 0x40 MLOAD PUSH3 0x461BCD PUSH1 0xE5 SHL DUP2 MSTORE PUSH1 0x4 ADD PUSH2 0x3B7 SWAP1 PUSH2 0x1AED JUMP JUMPDEST PUSH1 0x5 DUP2 SWAP1 SSTORE PUSH1 0x40 MLOAD PUSH32 0x4AAF232568BFF365C53CAD69BDB6E83014E79DF80216CEBA8EE01769723DFD68 SWAP1 PUSH2 0x639 SWAP1 DUP4 SWAP1 PUSH2 0x1B36 JUMP JUMPDEST PUSH1 0x3 SLOAD PUSH1 0x1 PUSH1 0x1 PUSH1 0xA0 SHL SUB AND CALLER EQ DUP1 PUSH2 0x890 JUMPI POP PUSH1 0x1 SLOAD PUSH1 0x1 PUSH1 0x1 PUSH1 0xA0 SHL SUB AND CALLER EQ JUMPDEST DUP1 PUSH2 0x8B3 JUMPI POP PUSH2 0x89E PUSH2 0x13A6 JUMP JUMPDEST PUSH1 0x1 PUSH1 0x1 PUSH1 0xA0 SHL SUB AND CALLER PUSH1 0x1 PUSH1 0x1 PUSH1 0xA0 SHL SUB AND EQ JUMPDEST PUSH2 0x8CF JUMPI PUSH1 0x40 MLOAD PUSH3 0x461BCD PUSH1 0xE5 SHL DUP2 MSTORE PUSH1 0x4 ADD PUSH2 0x3B7 SWAP1 PUSH2 0x1AED JUMP JUMPDEST PUSH1 0x0 SLOAD PUSH1 0x40 DUP1 MLOAD PUSH4 0xBF3759B5 PUSH1 0xE0 SHL DUP2 MSTORE SWAP1 MLOAD PUSH2 0x952 SWAP3 PUSH1 0x1 PUSH1 0x1 PUSH1 0xA0 SHL SUB AND SWAP2 PUSH4 0xBF3759B5 SWAP2 PUSH1 0x4 DUP1 DUP4 ADD SWAP3 PUSH1 0x20 SWAP3 SWAP2 SWAP1 DUP3 SWAP1 SUB ADD DUP2 DUP7 DUP1 EXTCODESIZE ISZERO DUP1 ISZERO PUSH2 0x915 JUMPI PUSH1 0x0 DUP1 REVERT JUMPDEST POP GAS STATICCALL ISZERO DUP1 ISZERO PUSH2 0x929 JUMPI RETURNDATASIZE PUSH1 0x0 DUP1 RETURNDATACOPY RETURNDATASIZE PUSH1 0x0 REVERT JUMPDEST POP POP POP POP PUSH1 0x40 MLOAD RETURNDATASIZE PUSH1 0x1F NOT PUSH1 0x1F DUP3 ADD AND DUP3 ADD DUP1 PUSH1 0x40 MSTORE POP DUP2 ADD SWAP1 PUSH2 0x94D SWAP2 SWAP1 PUSH2 0x1938 JUMP JUMPDEST PUSH2 0x14ED JUMP JUMPDEST JUMP JUMPDEST PUSH1 0x3 SLOAD PUSH1 0x1 PUSH1 0x1 PUSH1 0xA0 SHL SUB AND CALLER EQ DUP1 PUSH2 0x977 JUMPI POP PUSH1 0x1 SLOAD PUSH1 0x1 PUSH1 0x1 PUSH1 0xA0 SHL SUB AND CALLER EQ JUMPDEST DUP1 PUSH2 0x99A JUMPI POP PUSH2 0x985 PUSH2 0x13A6 JUMP JUMPDEST PUSH1 0x1 PUSH1 0x1 PUSH1 0xA0 SHL SUB AND CALLER PUSH1 0x1 PUSH1 0x1 PUSH1 0xA0 SHL SUB AND EQ JUMPDEST PUSH2 0x9B6 JUMPI PUSH1 0x40 MLOAD PUSH3 0x461BCD PUSH1 0xE5 SHL DUP2 MSTORE PUSH1 0x4 ADD PUSH2 0x3B7 SWAP1 PUSH2 0x1AED JUMP JUMPDEST PUSH1 0x0 DUP1 PUSH1 0x0 DUP1 PUSH1 0x0 SWAP1 SLOAD SWAP1 PUSH2 0x100 EXP SWAP1 DIV PUSH1 0x1 PUSH1 0x1 PUSH1 0xA0 SHL SUB AND PUSH1 0x1 PUSH1 0x1 PUSH1 0xA0 SHL SUB AND PUSH4 0xBF3759B5 PUSH1 0x40 MLOAD DUP2 PUSH4 0xFFFFFFFF AND PUSH1 0xE0 SHL DUP2 MSTORE PUSH1 0x4 ADD PUSH1 0x20 PUSH1 0x40 MLOAD DUP1 DUP4 SUB DUP2 DUP7 DUP1 EXTCODESIZE ISZERO DUP1 ISZERO PUSH2 0xA08 JUMPI PUSH1 0x0 DUP1 REVERT JUMPDEST POP GAS STATICCALL ISZERO DUP1 ISZERO PUSH2 0xA1C JUMPI RETURNDATASIZE PUSH1 0x0 DUP1 RETURNDATACOPY RETURNDATASIZE PUSH1 0x0 REVERT JUMPDEST POP POP POP POP PUSH1 0x40 MLOAD RETURNDATASIZE PUSH1 0x1F NOT PUSH1 0x1F DUP3 ADD AND DUP3 ADD DUP1 PUSH1 0x40 MSTORE POP DUP2 ADD SWAP1 PUSH2 0xA40 SWAP2 SWAP1 PUSH2 0x1938 JUMP JUMPDEST PUSH1 0x8 SLOAD SWAP1 SWAP2 POP PUSH1 0x0 SWAP1 PUSH1 0xFF AND ISZERO PUSH2 0xA96 JUMPI PUSH1 0x0 PUSH2 0xA5B PUSH2 0x122F JUMP JUMPDEST SWAP1 POP PUSH2 0xA74 DUP4 DUP3 GT PUSH2 0xA6D JUMPI DUP4 PUSH2 0xA6F JUMP JUMPDEST DUP2 JUMPDEST PUSH2 0x143F JUMP JUMPDEST SWAP5 POP SWAP2 POP DUP3 DUP3 GT ISZERO PUSH2 0xA90 JUMPI PUSH2 0xA8A DUP3 DUP5 PUSH2 0x14F0 JUMP JUMPDEST SWAP5 POP DUP3 SWAP2 POP JUMPDEST POP PUSH2 0xAA7 JUMP JUMPDEST PUSH2 0xA9F DUP3 PUSH2 0x153B JUMP JUMPDEST SWAP2 SWAP6 POP SWAP4 POP SWAP1 POP JUMPDEST PUSH1 0x0 SLOAD PUSH1 0x40 MLOAD PUSH4 0x28766EBF PUSH1 0xE2 SHL DUP2 MSTORE PUSH1 0x1 PUSH1 0x1 PUSH1 0xA0 SHL SUB SWAP1 SWAP2 AND SWAP1 PUSH4 0xA1D9BAFC SWAP1 PUSH2 0xADB SWAP1 DUP8 SWAP1 DUP8 SWAP1 DUP7 SWAP1 PUSH1 0x4 ADD PUSH2 0x1B3F JUMP JUMPDEST PUSH1 0x20 PUSH1 0x40 MLOAD DUP1 DUP4 SUB DUP2 PUSH1 0x0 DUP8 DUP1 EXTCODESIZE ISZERO DUP1 ISZERO PUSH2 0xAF5 JUMPI PUSH1 0x0 DUP1 REVERT JUMPDEST POP GAS CALL ISZERO DUP1 ISZERO PUSH2 0xB09 JUMPI RETURNDATASIZE PUSH1 0x0 DUP1 RETURNDATACOPY RETURNDATASIZE PUSH1 0x0 REVERT JUMPDEST POP POP POP POP PUSH1 0x40 MLOAD RETURNDATASIZE PUSH1 0x1F NOT PUSH1 0x1F DUP3 ADD AND DUP3 ADD DUP1 PUSH1 0x40 MSTORE POP DUP2 ADD SWAP1 PUSH2 0xB2D SWAP2 SWAP1 PUSH2 0x1938 JUMP JUMPDEST SWAP2 POP PUSH2 0xB37 PUSH2 0x16AE JUMP JUMPDEST PUSH2 0xB40 DUP3 PUSH2 0x14ED JUMP JUMPDEST PUSH32 0x4C0F499FFE6BEFA0CA7C826B0916CF87BEA98DE658013E76938489368D60D509 DUP5 DUP5 DUP4 DUP6 PUSH1 0x40 MLOAD PUSH2 0xB75 SWAP5 SWAP4 SWAP3 SWAP2 SWAP1 PUSH2 0x1B55 JUMP JUMPDEST PUSH1 0x40 MLOAD DUP1 SWAP2 SUB SWAP1 LOG1 POP POP POP POP JUMP JUMPDEST PUSH1 0x8 SLOAD PUSH1 0xFF AND DUP2 JUMP JUMPDEST PUSH1 0x0 JUMPDEST SWAP2 SWAP1 POP JUMP JUMPDEST PUSH1 0x1 SLOAD PUSH1 0x1 PUSH1 0x1 PUSH1 0xA0 SHL SUB AND CALLER EQ DUP1 PUSH2 0xBC5 JUMPI POP PUSH2 0xBB0 PUSH2 0x13A6 JUMP JUMPDEST PUSH1 0x1 PUSH1 0x1 PUSH1 0xA0 SHL SUB AND CALLER PUSH1 0x1 PUSH1 0x1 PUSH1 0xA0 SHL SUB AND EQ JUMPDEST PUSH2 0xBE1 JUMPI PUSH1 0x40 MLOAD PUSH3 0x461BCD PUSH1 0xE5 SHL DUP2 MSTORE PUSH1 0x4 ADD PUSH2 0x3B7 SWAP1 PUSH2 0x1AED JUMP JUMPDEST PUSH1 0x3 DUP1 SLOAD PUSH1 0x1 PUSH1 0x1 PUSH1 0xA0 SHL SUB NOT AND PUSH1 0x1 PUSH1 0x1 PUSH1 0xA0 SHL SUB DUP4 AND OR SWAP1 SSTORE PUSH1 0x40 MLOAD PUSH32 0x2F202DDB4A2E345F6323ED90F8FC8559D770A7ABBBEEE84DDE8ACA3351FE7154 SWAP1 PUSH2 0x639 SWAP1 DUP4 SWAP1 PUSH2 0x1985 JUMP JUMPDEST PUSH1 0x6 SLOAD DUP2 JUMP JUMPDEST PUSH1 0x0 SWAP1 JUMP JUMPDEST PUSH1 0x1 SLOAD PUSH1 0x1 PUSH1 0x1 PUSH1 0xA0 SHL SUB AND CALLER EQ DUP1 PUSH2 0xC68 JUMPI POP PUSH2 0xC53 PUSH2 0x13A6 JUMP JUMPDEST PUSH1 0x1 PUSH1 0x1 PUSH1 0xA0 SHL SUB AND CALLER PUSH1 0x1 PUSH1 0x1 PUSH1 0xA0 SHL SUB AND EQ JUMPDEST PUSH2 0xC84 JUMPI PUSH1 0x40 MLOAD PUSH3 0x461BCD PUSH1 0xE5 SHL DUP2 MSTORE PUSH1 0x4 ADD PUSH2 0x3B7 SWAP1 PUSH2 0x1AED JUMP JUMPDEST PUSH1 0x6 DUP2 SWAP1 SSTORE PUSH1 0x40 MLOAD PUSH32 0xD94596337DF4C2F0F44D30A7FC5DB1C7BB60D9ACA4185ED77C6FD96EB45EC298 SWAP1 PUSH2 0x639 SWAP1 DUP4 SWAP1 PUSH2 0x1B36 JUMP JUMPDEST PUSH1 0x5 SLOAD DUP2 JUMP JUMPDEST PUSH1 0x2 SLOAD PUSH1 0x1 PUSH1 0x1 PUSH1 0xA0 SHL SUB AND DUP2 JUMP JUMPDEST PUSH1 0x3 SLOAD PUSH1 0x1 PUSH1 0x1 PUSH1 0xA0 SHL SUB AND DUP2 JUMP JUMPDEST PUSH1 0x1 SLOAD PUSH1 0x1 PUSH1 0x1 PUSH1 0xA0 SHL SUB AND CALLER EQ DUP1 PUSH2 0xD0E JUMPI POP PUSH2 0xCF9 PUSH2 0x13A6 JUMP JUMPDEST PUSH1 0x1 PUSH1 0x1 PUSH1 0xA0 SHL SUB AND CALLER PUSH1 0x1 PUSH1 0x1 PUSH1 0xA0 SHL SUB AND EQ JUMPDEST PUSH2 0xD2A JUMPI PUSH1 0x40 MLOAD PUSH3 0x461BCD PUSH1 0xE5 SHL DUP2 MSTORE PUSH1 0x4 ADD PUSH2 0x3B7 SWAP1 PUSH2 0x1AED JUMP JUMPDEST PUSH1 0x1 DUP1 SLOAD PUSH1 0x1 PUSH1 0x1 PUSH1 0xA0 SHL SUB NOT AND PUSH1 0x1 PUSH1 0x1 PUSH1 0xA0 SHL SUB DUP4 AND OR SWAP1 SSTORE PUSH1 0x40 MLOAD PUSH32 0x352ECECAE6D7D1E6D26BCF2C549DFD55BE1637E9B22DC0CF3B71DDB36097A6B4 SWAP1 PUSH2 0x639 SWAP1 DUP4 SWAP1 PUSH2 0x1985 JUMP JUMPDEST PUSH1 0x0 SLOAD PUSH1 0x1 PUSH1 0x1 PUSH1 0xA0 SHL SUB AND CALLER EQ DUP1 PUSH2 0xDA6 JUMPI POP PUSH2 0xD91 PUSH2 0x13A6 JUMP JUMPDEST PUSH1 0x1 PUSH1 0x1 PUSH1 0xA0 SHL SUB AND CALLER PUSH1 0x1 PUSH1 0x1 PUSH1 0xA0 SHL SUB AND EQ JUMPDEST PUSH2 0xDAF JUMPI PUSH1 0x0 DUP1 REVERT JUMPDEST PUSH1 0x0 DUP1 SLOAD SWAP1 PUSH2 0x100 EXP SWAP1 DIV PUSH1 0x1 PUSH1 0x1 PUSH1 0xA0 SHL SUB AND PUSH1 0x1 PUSH1 0x1 PUSH1 0xA0 SHL SUB AND DUP2 PUSH1 0x1 PUSH1 0x1 PUSH1 0xA0 SHL SUB AND PUSH4 0xFBFA77CF PUSH1 0x40 MLOAD DUP2 PUSH4 0xFFFFFFFF AND PUSH1 0xE0 SHL DUP2 MSTORE PUSH1 0x4 ADD PUSH1 0x20 PUSH1 0x40 MLOAD DUP1 DUP4 SUB DUP2 DUP7 DUP1 EXTCODESIZE ISZERO DUP1 ISZERO PUSH2 0xE05 JUMPI PUSH1 0x0 DUP1 REVERT JUMPDEST POP GAS STATICCALL ISZERO DUP1 ISZERO PUSH2 0xE19 JUMPI RETURNDATASIZE PUSH1 0x0 DUP1 RETURNDATACOPY RETURNDATASIZE PUSH1 0x0 REVERT JUMPDEST POP POP POP POP PUSH1 0x40 MLOAD RETURNDATASIZE PUSH1 0x1F NOT PUSH1 0x1F DUP3 ADD AND DUP3 ADD DUP1 PUSH1 0x40 MSTORE POP DUP2 ADD SWAP1 PUSH2 0xE3D SWAP2 SWAP1 PUSH2 0x1859 JUMP JUMPDEST PUSH1 0x1 PUSH1 0x1 PUSH1 0xA0 SHL SUB AND EQ PUSH2 0xE50 JUMPI PUSH1 0x0 DUP1 REVERT JUMPDEST PUSH2 0xE59 DUP2 PUSH2 0x14ED JUMP JUMPDEST PUSH1 0x4 DUP1 SLOAD PUSH1 0x40 MLOAD PUSH4 0x70A08231 PUSH1 0xE0 SHL DUP2 MSTORE PUSH1 0x1 PUSH1 0x1 PUSH1 0xA0 SHL SUB SWAP1 SWAP2 AND SWAP2 PUSH4 0xA9059CBB SWAP2 DUP5 SWAP2 DUP5 SWAP2 PUSH4 0x70A08231 SWAP2 PUSH2 0xE92 SWAP2 ADDRESS SWAP2 ADD PUSH2 0x1985 JUMP JUMPDEST PUSH1 0x20 PUSH1 0x40 MLOAD DUP1 DUP4 SUB DUP2 DUP7 DUP1 EXTCODESIZE ISZERO DUP1 ISZERO PUSH2 0xEAA JUMPI PUSH1 0x0 DUP1 REVERT JUMPDEST POP GAS STATICCALL ISZERO DUP1 ISZERO PUSH2 0xEBE JUMPI RETURNDATASIZE PUSH1 0x0 DUP1 RETURNDATACOPY RETURNDATASIZE PUSH1 0x0 REVERT JUMPDEST POP POP POP POP PUSH1 0x40 MLOAD RETURNDATASIZE PUSH1 0x1F NOT PUSH1 0x1F DUP3 ADD AND DUP3 ADD DUP1 PUSH1 0x40 MSTORE POP DUP2 ADD SWAP1 PUSH2 0xEE2 SWAP2 SWAP1 PUSH2 0x1938 JUMP JUMPDEST PUSH1 0x40 MLOAD DUP4 PUSH4 0xFFFFFFFF AND PUSH1 0xE0 SHL DUP2 MSTORE PUSH1 0x4 ADD PUSH2 0xEFF SWAP3 SWAP2 SWAP1 PUSH2 0x1999 JUMP JUMPDEST PUSH1 0x20 PUSH1 0x40 MLOAD DUP1 DUP4 SUB DUP2 PUSH1 0x0 DUP8 DUP1 EXTCODESIZE ISZERO DUP1 ISZERO PUSH2 0xF19 JUMPI PUSH1 0x0 DUP1 REVERT JUMPDEST POP GAS CALL ISZERO DUP1 ISZERO PUSH2 0xF2D JUMPI RETURNDATASIZE PUSH1 0x0 DUP1 RETURNDATACOPY RETURNDATASIZE PUSH1 0x0 REVERT JUMPDEST POP POP POP POP PUSH1 0x40 MLOAD RETURNDATASIZE PUSH1 0x1F NOT PUSH1 0x1F DUP3 ADD AND DUP3 ADD DUP1 PUSH1 0x40 MSTORE POP DUP2 ADD SWAP1 PUSH2 0xF51 SWAP2 SWAP1 PUSH2 0x1875 JUMP JUMPDEST POP POP JUMP JUMPDEST PUSH1 0x1 SLOAD PUSH1 0x1 PUSH1 0x1 PUSH1 0xA0 SHL SUB AND CALLER EQ PUSH2 0xF7F JUMPI PUSH1 0x40 MLOAD PUSH3 0x461BCD PUSH1 0xE5 SHL DUP2 MSTORE PUSH1 0x4 ADD PUSH2 0x3B7 SWAP1 PUSH2 0x19F0 JUMP JUMPDEST PUSH1 0x2 DUP1 SLOAD PUSH1 0x1 PUSH1 0x1 PUSH1 0xA0 SHL SUB NOT AND PUSH1 0x1 PUSH1 0x1 PUSH1 0xA0 SHL SUB DUP4 AND OR SWAP1 SSTORE PUSH1 0x40 MLOAD PUSH32 0xAFBB66ABF8F3B719799940473A4052A3717CDD8E40FB6C8A3FAADAB316B1A069 SWAP1 PUSH2 0x639 SWAP1 DUP4 SWAP1 PUSH2 0x1985 JUMP JUMPDEST PUSH1 0x0 PUSH2 0xFD4 PUSH2 0x17F8 JUMP JUMPDEST PUSH1 0x0 SLOAD PUSH1 0x40 MLOAD PUSH4 0x39EBF823 PUSH1 0xE0 SHL DUP2 MSTORE PUSH1 0x1 PUSH1 0x1 PUSH1 0xA0 SHL SUB SWAP1 SWAP2 AND SWAP1 PUSH4 0x39EBF823 SWAP1 PUSH2 0x1004 SWAP1 ADDRESS SWAP1 PUSH1 0x4 ADD PUSH2 0x1985 JUMP JUMPDEST PUSH2 0x100 PUSH1 0x40 MLOAD DUP1 DUP4 SUB DUP2 DUP7 DUP1 EXTCODESIZE ISZERO DUP1 ISZERO PUSH2 0x101D JUMPI PUSH1 0x0 DUP1 REVERT JUMPDEST POP GAS STATICCALL ISZERO DUP1 ISZERO PUSH2 0x1031 JUMPI RETURNDATASIZE PUSH1 0x0 DUP1 RETURNDATACOPY RETURNDATASIZE PUSH1 0x0 REVERT JUMPDEST POP POP POP POP PUSH1 0x40 MLOAD RETURNDATASIZE PUSH1 0x1F NOT PUSH1 0x1F DUP3 ADD AND DUP3 ADD DUP1 PUSH1 0x40 MSTORE POP DUP2 ADD SWAP1 PUSH2 0x1055 SWAP2 SWAP1 PUSH2 0x1895 JUMP JUMPDEST SWAP1 POP DUP1 PUSH1 0x20 ADD MLOAD PUSH1 0x0 EQ ISZERO PUSH2 0x106E JUMPI PUSH1 0x0 SWAP2 POP POP PUSH2 0xB8F JUMP JUMPDEST PUSH1 0x5 SLOAD PUSH1 0x80 DUP3 ADD MLOAD PUSH2 0x1081 SWAP1 TIMESTAMP SWAP1 PUSH2 0x14F0 JUMP JUMPDEST LT PUSH2 0x1090 JUMPI PUSH1 0x1 SWAP2 POP POP PUSH2 0xB8F JUMP JUMPDEST PUSH1 0x0 DUP1 PUSH1 0x0 SWAP1 SLOAD SWAP1 PUSH2 0x100 EXP SWAP1 DIV PUSH1 0x1 PUSH1 0x1 PUSH1 0xA0 SHL SUB AND PUSH1 0x1 PUSH1 0x1 PUSH1 0xA0 SHL SUB AND PUSH4 0xBF3759B5 PUSH1 0x40 MLOAD DUP2 PUSH4 0xFFFFFFFF AND PUSH1 0xE0 SHL DUP2 MSTORE PUSH1 0x4 ADD PUSH1 0x20 PUSH1 0x40 MLOAD DUP1 DUP4 SUB DUP2 DUP7 DUP1 EXTCODESIZE ISZERO DUP1 ISZERO PUSH2 0x10DF JUMPI PUSH1 0x0 DUP1 REVERT JUMPDEST POP GAS STATICCALL ISZERO DUP1 ISZERO PUSH2 0x10F3 JUMPI RETURNDATASIZE PUSH1 0x0 DUP1 RETURNDATACOPY RETURNDATASIZE PUSH1 0x0 REVERT JUMPDEST POP POP POP POP PUSH1 0x40 MLOAD RETURNDATASIZE PUSH1 0x1F NOT PUSH1 0x1F DUP3 ADD AND DUP3 ADD DUP1 PUSH1 0x40 MSTORE POP DUP2 ADD SWAP1 PUSH2 0x1117 SWAP2 SWAP1 PUSH2 0x1938 JUMP JUMPDEST SWAP1 POP DUP1 ISZERO PUSH2 0x112A JUMPI PUSH1 0x1 SWAP3 POP POP POP PUSH2 0xB8F JUMP JUMPDEST PUSH1 0x0 PUSH2 0x1134 PUSH2 0x122F JUMP JUMPDEST SWAP1 POP DUP3 PUSH1 0xA0 ADD MLOAD PUSH2 0x1150 PUSH1 0x7 SLOAD DUP4 PUSH2 0x176D SWAP1 SWAP2 SWAP1 PUSH4 0xFFFFFFFF AND JUMP JUMPDEST LT ISZERO PUSH2 0x1162 JUMPI PUSH1 0x1 SWAP4 POP POP POP POP PUSH2 0xB8F JUMP JUMPDEST PUSH1 0x0 DUP4 PUSH1 0xA0 ADD MLOAD DUP3 GT ISZERO PUSH2 0x1183 JUMPI PUSH1 0xA0 DUP5 ADD MLOAD PUSH2 0x1180 SWAP1 DUP4 SWAP1 PUSH2 0x14F0 JUMP JUMPDEST SWAP1 POP JUMPDEST PUSH1 0x0 DUP1 PUSH1 0x0 SWAP1 SLOAD SWAP1 PUSH2 0x100 EXP SWAP1 DIV PUSH1 0x1 PUSH1 0x1 PUSH1 0xA0 SHL SUB AND PUSH1 0x1 PUSH1 0x1 PUSH1 0xA0 SHL SUB AND PUSH4 0x112C1F9B PUSH1 0x40 MLOAD DUP2 PUSH4 0xFFFFFFFF AND PUSH1 0xE0 SHL DUP2 MSTORE PUSH1 0x4 ADD PUSH1 0x20 PUSH1 0x40 MLOAD DUP1 DUP4 SUB DUP2 DUP7 DUP1 EXTCODESIZE ISZERO DUP1 ISZERO PUSH2 0x11D2 JUMPI PUSH1 0x0 DUP1 REVERT JUMPDEST POP GAS STATICCALL ISZERO DUP1 ISZERO PUSH2 0x11E6 JUMPI RETURNDATASIZE PUSH1 0x0 DUP1 RETURNDATACOPY RETURNDATASIZE PUSH1 0x0 REVERT JUMPDEST POP POP POP POP PUSH1 0x40 MLOAD RETURNDATASIZE PUSH1 0x1F NOT PUSH1 0x1F DUP3 ADD AND DUP3 ADD DUP1 PUSH1 0x40 MSTORE POP DUP2 ADD SWAP1 PUSH2 0x120A SWAP2 SWAP1 PUSH2 0x1938 JUMP JUMPDEST SWAP1 POP PUSH2 0x1216 DUP2 DUP4 PUSH2 0x176D JUMP JUMPDEST PUSH1 0x6 SLOAD PUSH2 0x1223 SWAP1 DUP10 PUSH2 0x1792 JUMP JUMPDEST LT SWAP8 SWAP7 POP POP POP POP POP POP POP JUMP JUMPDEST PUSH1 0x4 DUP1 SLOAD PUSH1 0x40 MLOAD PUSH4 0x70A08231 PUSH1 0xE0 SHL DUP2 MSTORE PUSH1 0x0 SWAP3 PUSH1 0x1 PUSH1 0x1 PUSH1 0xA0 SHL SUB SWAP1 SWAP3 AND SWAP2 PUSH4 0x70A08231 SWAP2 PUSH2 0x1261 SWAP2 ADDRESS SWAP2 ADD PUSH2 0x1985 JUMP JUMPDEST PUSH1 0x20 PUSH1 0x40 MLOAD DUP1 DUP4 SUB DUP2 DUP7 DUP1 EXTCODESIZE ISZERO DUP1 ISZERO PUSH2 0x1279 JUMPI PUSH1 0x0 DUP1 REVERT JUMPDEST POP GAS STATICCALL ISZERO DUP1 ISZERO PUSH2 0x128D JUMPI RETURNDATASIZE PUSH1 0x0 DUP1 RETURNDATACOPY RETURNDATASIZE PUSH1 0x0 REVERT JUMPDEST POP POP POP POP PUSH1 0x40 MLOAD RETURNDATASIZE PUSH1 0x1F NOT PUSH1 0x1F DUP3 ADD AND DUP3 ADD DUP1 PUSH1 0x40 MSTORE POP DUP2 ADD SWAP1 PUSH2 0x701 SWAP2 SWAP1 PUSH2 0x1938 JUMP JUMPDEST PUSH1 0x4 DUP1 SLOAD PUSH1 0x40 MLOAD PUSH4 0xA9059CBB PUSH1 0xE0 SHL DUP2 MSTORE PUSH1 0x1 PUSH1 0x1 PUSH1 0xA0 SHL SUB SWAP1 SWAP2 AND SWAP2 PUSH4 0xA9059CBB SWAP2 PUSH2 0xEFF SWAP2 CALLER SWAP2 DUP7 SWAP2 ADD PUSH2 0x1999 JUMP JUMPDEST PUSH1 0x0 SLOAD PUSH1 0x1 PUSH1 0x1 PUSH1 0xA0 SHL SUB AND DUP2 JUMP JUMPDEST PUSH1 0x1 SLOAD PUSH1 0x1 PUSH1 0x1 PUSH1 0xA0 SHL SUB AND CALLER EQ DUP1 PUSH2 0x1322 JUMPI POP PUSH2 0x130D PUSH2 0x13A6 JUMP JUMPDEST PUSH1 0x1 PUSH1 0x1 PUSH1 0xA0 SHL SUB AND CALLER PUSH1 0x1 PUSH1 0x1 PUSH1 0xA0 SHL SUB AND EQ JUMPDEST PUSH2 0x133E JUMPI PUSH1 0x40 MLOAD PUSH3 0x461BCD PUSH1 0xE5 SHL DUP2 MSTORE PUSH1 0x4 ADD PUSH2 0x3B7 SWAP1 PUSH2 0x1AED JUMP JUMPDEST PUSH1 0x8 DUP1 SLOAD PUSH1 0xFF NOT AND PUSH1 0x1 OR SWAP1 SSTORE PUSH1 0x0 DUP1 SLOAD PUSH1 0x40 DUP1 MLOAD PUSH4 0x507257CD PUSH1 0xE1 SHL DUP2 MSTORE SWAP1 MLOAD PUSH1 0x1 PUSH1 0x1 PUSH1 0xA0 SHL SUB SWAP1 SWAP3 AND SWAP3 PUSH4 0xA0E4AF9A SWAP3 PUSH1 0x4 DUP1 DUP5 ADD SWAP4 DUP3 SWAP1 SUB ADD DUP2 DUP4 DUP8 DUP1 EXTCODESIZE ISZERO DUP1 ISZERO PUSH2 0x138C JUMPI PUSH1 0x0 DUP1 REVERT JUMPDEST POP GAS CALL ISZERO DUP1 ISZERO PUSH2 0x13A0 JUMPI RETURNDATASIZE PUSH1 0x0 DUP1 RETURNDATACOPY RETURNDATASIZE PUSH1 0x0 REVERT JUMPDEST POP POP POP POP JUMP JUMPDEST PUSH1 0x0 DUP1 PUSH1 0x0 SWAP1 SLOAD SWAP1 PUSH2 0x100 EXP SWAP1 DIV PUSH1 0x1 PUSH1 0x1 PUSH1 0xA0 SHL SUB AND PUSH1 0x1 PUSH1 0x1 PUSH1 0xA0 SHL SUB AND PUSH4 0x5AA6E675 PUSH1 0x40 MLOAD DUP2 PUSH4 0xFFFFFFFF AND PUSH1 0xE0 SHL DUP2 MSTORE PUSH1 0x4 ADD PUSH1 0x20 PUSH1 0x40 MLOAD DUP1 DUP4 SUB DUP2 DUP7 DUP1 EXTCODESIZE ISZERO DUP1 ISZERO PUSH2 0x13F5 JUMPI PUSH1 0x0 DUP1 REVERT JUMPDEST POP GAS STATICCALL ISZERO DUP1 ISZERO PUSH2 0x1409 JUMPI RETURNDATASIZE PUSH1 0x0 DUP1 RETURNDATACOPY RETURNDATASIZE PUSH1 0x0 REVERT JUMPDEST POP POP POP POP PUSH1 0x40 MLOAD RETURNDATASIZE PUSH1 0x1F NOT PUSH1 0x1F DUP3 ADD AND DUP3 ADD DUP1 PUSH1 0x40 MSTORE POP DUP2 ADD SWAP1 PUSH2 0x701 SWAP2 SWAP1 PUSH2 0x1859 JUMP JUMPDEST PUSH1 0x40 DUP1 MLOAD PUSH1 0x0 DUP2 MSTORE PUSH1 0x20 DUP2 ADD SWAP1 SWAP2 MSTORE SWAP1 JUMP JUMPDEST PUSH1 0x4 DUP1 SLOAD PUSH1 0x40 MLOAD PUSH4 0x70A08231 PUSH1 0xE0 SHL DUP2 MSTORE PUSH1 0x0 SWAP3 DUP4 SWAP3 DUP4 SWAP3 PUSH1 0x1 PUSH1 0x1 PUSH1 0xA0 SHL SUB SWAP1 SWAP2 AND SWAP2 PUSH4 0x70A08231 SWAP2 PUSH2 0x1475 SWAP2 ADDRESS SWAP2 ADD PUSH2 0x1985 JUMP JUMPDEST PUSH1 0x20 PUSH1 0x40 MLOAD DUP1 DUP4 SUB DUP2 DUP7 DUP1 EXTCODESIZE ISZERO DUP1 ISZERO PUSH2 0x148D JUMPI PUSH1 0x0 DUP1 REVERT JUMPDEST POP GAS STATICCALL ISZERO DUP1 ISZERO PUSH2 0x14A1 JUMPI RETURNDATASIZE PUSH1 0x0 DUP1 RETURNDATACOPY RETURNDATASIZE PUSH1 0x0 REVERT JUMPDEST POP POP POP POP PUSH1 0x40 MLOAD RETURNDATASIZE PUSH1 0x1F NOT PUSH1 0x1F DUP3 ADD AND DUP3 ADD DUP1 PUSH1 0x40 MSTORE POP DUP2 ADD SWAP1 PUSH2 0x14C5 SWAP2 SWAP1 PUSH2 0x1938 JUMP JUMPDEST SWAP1 POP DUP1 DUP5 GT ISZERO PUSH2 0x14E3 JUMPI SWAP2 POP DUP2 PUSH2 0x14DC DUP5 DUP3 PUSH2 0x14F0 JUMP JUMPDEST SWAP2 POP PUSH2 0x14E7 JUMP JUMPDEST DUP4 SWAP3 POP JUMPDEST POP SWAP2 POP SWAP2 JUMP JUMPDEST POP JUMP JUMPDEST PUSH1 0x0 PUSH2 0x1532 DUP4 DUP4 PUSH1 0x40 MLOAD DUP1 PUSH1 0x40 ADD PUSH1 0x40 MSTORE DUP1 PUSH1 0x1E DUP2 MSTORE PUSH1 0x20 ADD PUSH32 0x536166654D6174683A207375627472616374696F6E206F766572666C6F770000 DUP2 MSTORE POP PUSH2 0x17CC JUMP JUMPDEST SWAP1 POP JUMPDEST SWAP3 SWAP2 POP POP JUMP JUMPDEST PUSH1 0x4 DUP1 SLOAD PUSH1 0x40 MLOAD PUSH4 0x70A08231 PUSH1 0xE0 SHL DUP2 MSTORE PUSH1 0x0 SWAP3 DUP4 SWAP3 DUP4 SWAP3 DUP4 SWAP3 PUSH1 0x1 PUSH1 0x1 PUSH1 0xA0 SHL SUB SWAP1 SWAP3 AND SWAP2 PUSH4 0x70A08231 SWAP2 PUSH2 0x1573 SWAP2 ADDRESS SWAP2 ADD PUSH2 0x1985 JUMP JUMPDEST PUSH1 0x20 PUSH1 0x40 MLOAD DUP1 DUP4 SUB DUP2 DUP7 DUP1 EXTCODESIZE ISZERO DUP1 ISZERO PUSH2 0x158B JUMPI PUSH1 0x0 DUP1 REVERT JUMPDEST POP GAS STATICCALL ISZERO DUP1 ISZERO PUSH2 0x159F JUMPI RETURNDATASIZE PUSH1 0x0 DUP1 RETURNDATACOPY RETURNDATASIZE PUSH1 0x0 REVERT JUMPDEST POP POP POP POP PUSH1 0x40 MLOAD RETURNDATASIZE PUSH1 0x1F NOT PUSH1 0x1F DUP3 ADD AND DUP3 ADD DUP1 PUSH1 0x40 MSTORE POP DUP2 ADD SWAP1 PUSH2 0x15C3 SWAP2 SWAP1 PUSH2 0x1938 JUMP JUMPDEST PUSH1 0x0 DUP1 SLOAD PUSH1 0x40 MLOAD PUSH4 0x39EBF823 PUSH1 0xE0 SHL DUP2 MSTORE SWAP3 SWAP4 POP SWAP1 SWAP2 PUSH1 0x1 PUSH1 0x1 PUSH1 0xA0 SHL SUB SWAP1 SWAP2 AND SWAP1 PUSH4 0x39EBF823 SWAP1 PUSH2 0x15F9 SWAP1 ADDRESS SWAP1 PUSH1 0x4 ADD PUSH2 0x1985 JUMP JUMPDEST PUSH2 0x100 PUSH1 0x40 MLOAD DUP1 DUP4 SUB DUP2 DUP7 DUP1 EXTCODESIZE ISZERO DUP1 ISZERO PUSH2 0x1612 JUMPI PUSH1 0x0 DUP1 REVERT JUMPDEST POP GAS STATICCALL ISZERO DUP1 ISZERO PUSH2 0x1626 JUMPI RETURNDATASIZE PUSH1 0x0 DUP1 RETURNDATACOPY RETURNDATASIZE PUSH1 0x0 REVERT JUMPDEST POP POP POP POP PUSH1 0x40 MLOAD RETURNDATASIZE PUSH1 0x1F NOT PUSH1 0x1F DUP3 ADD AND DUP3 ADD DUP1 PUSH1 0x40 MSTORE POP DUP2 ADD SWAP1 PUSH2 0x164A SWAP2 SWAP1 PUSH2 0x1895 JUMP JUMPDEST PUSH1 0xA0 ADD MLOAD SWAP1 POP DUP6 DUP3 GT ISZERO PUSH2 0x166C JUMPI DUP6 SWAP3 POP PUSH2 0x1665 DUP3 DUP5 PUSH2 0x14F0 JUMP JUMPDEST SWAP2 POP PUSH2 0x1673 JUMP JUMPDEST SWAP1 SWAP2 POP PUSH1 0x0 SWAP1 JUMPDEST PUSH2 0x167D DUP2 DUP5 PUSH2 0x14F0 JUMP JUMPDEST SWAP1 POP DUP1 DUP3 GT ISZERO PUSH2 0x1698 JUMPI PUSH2 0x1691 DUP3 DUP3 PUSH2 0x14F0 JUMP JUMPDEST SWAP5 POP PUSH2 0x16A5 JUMP JUMPDEST PUSH2 0x16A2 DUP2 DUP4 PUSH2 0x14F0 JUMP JUMPDEST SWAP4 POP JUMPDEST POP POP SWAP2 SWAP4 SWAP1 SWAP3 POP JUMP JUMPDEST PUSH1 0x0 DUP1 SLOAD PUSH1 0x40 MLOAD PUSH4 0x70A08231 PUSH1 0xE0 SHL DUP2 MSTORE PUSH1 0x1 PUSH1 0x1 PUSH1 0xA0 SHL SUB SWAP1 SWAP2 AND SWAP1 PUSH4 0x70A08231 SWAP1 PUSH2 0x16DF SWAP1 ADDRESS SWAP1 PUSH1 0x4 ADD PUSH2 0x1985 JUMP JUMPDEST PUSH1 0x20 PUSH1 0x40 MLOAD DUP1 DUP4 SUB DUP2 DUP7 DUP1 EXTCODESIZE ISZERO DUP1 ISZERO PUSH2 0x16F7 JUMPI PUSH1 0x0 DUP1 REVERT JUMPDEST POP GAS STATICCALL ISZERO DUP1 ISZERO PUSH2 0x170B JUMPI RETURNDATASIZE PUSH1 0x0 DUP1 RETURNDATACOPY RETURNDATASIZE PUSH1 0x0 REVERT JUMPDEST POP POP POP POP PUSH1 0x40 MLOAD RETURNDATASIZE PUSH1 0x1F NOT PUSH1 0x1F DUP3 ADD AND DUP3 ADD DUP1 PUSH1 0x40 MSTORE POP DUP2 ADD SWAP1 PUSH2 0x172F SWAP2 SWAP1 PUSH2 0x1938 JUMP JUMPDEST SWAP1 POP DUP1 ISZERO PUSH2 0x14ED JUMPI PUSH1 0x0 SLOAD PUSH1 0x2 SLOAD PUSH1 0x40 MLOAD PUSH4 0xA9059CBB PUSH1 0xE0 SHL DUP2 MSTORE PUSH1 0x1 PUSH1 0x1 PUSH1 0xA0 SHL SUB SWAP3 DUP4 AND SWAP3 PUSH4 0xA9059CBB SWAP3 PUSH2 0xEFF SWAP3 SWAP2 AND SWAP1 DUP6 SWAP1 PUSH1 0x4 ADD PUSH2 0x1999 JUMP JUMPDEST PUSH1 0x0 DUP3 DUP3 ADD DUP4 DUP2 LT ISZERO PUSH2 0x1532 JUMPI PUSH1 0x40 MLOAD PUSH3 0x461BCD PUSH1 0xE5 SHL DUP2 MSTORE PUSH1 0x4 ADD PUSH2 0x3B7 SWAP1 PUSH2 0x1A34 JUMP JUMPDEST PUSH1 0x0 DUP3 PUSH2 0x17A1 JUMPI POP PUSH1 0x0 PUSH2 0x1535 JUMP JUMPDEST DUP3 DUP3 MUL DUP3 DUP5 DUP3 DUP2 PUSH2 0x17AE JUMPI INVALID JUMPDEST DIV EQ PUSH2 0x1532 JUMPI PUSH1 0x40 MLOAD PUSH3 0x461BCD PUSH1 0xE5 SHL DUP2 MSTORE PUSH1 0x4 ADD PUSH2 0x3B7 SWAP1 PUSH2 0x1A6B JUMP JUMPDEST PUSH1 0x0 DUP2 DUP5 DUP5 GT ISZERO PUSH2 0x17F0 JUMPI PUSH1 0x40 MLOAD PUSH3 0x461BCD PUSH1 0xE5 SHL DUP2 MSTORE PUSH1 0x4 ADD PUSH2 0x3B7 SWAP2 SWAP1 PUSH2 0x19BD JUMP JUMPDEST POP POP POP SWAP1 SUB SWAP1 JUMP JUMPDEST PUSH1 0x40 MLOAD DUP1 PUSH2 0x100 ADD PUSH1 0x40 MSTORE DUP1 PUSH1 0x0 DUP2 MSTORE PUSH1 0x20 ADD PUSH1 0x0 DUP2 MSTORE PUSH1 0x20 ADD PUSH1 0x0 DUP2 MSTORE PUSH1 0x20 ADD PUSH1 0x0 DUP2 MSTORE PUSH1 0x20 ADD PUSH1 0x0 DUP2 MSTORE PUSH1 0x20 ADD PUSH1 0x0 DUP2 MSTORE PUSH1 0x20 ADD PUSH1 0x0 DUP2 MSTORE PUSH1 0x20 ADD PUSH1 0x0 DUP2 MSTORE POP SWAP1 JUMP JUMPDEST PUSH1 0x0 PUSH1 0x20 DUP3 DUP5 SUB SLT ISZERO PUSH2 0x184E JUMPI DUP1 DUP2 REVERT JUMPDEST DUP2 CALLDATALOAD PUSH2 0x1532 DUP2 PUSH2 0x1B9C JUMP JUMPDEST PUSH1 0x0 PUSH1 0x20 DUP3 DUP5 SUB SLT ISZERO PUSH2 0x186A JUMPI DUP1 DUP2 REVERT JUMPDEST DUP2 MLOAD PUSH2 0x1532 DUP2 PUSH2 0x1B9C JUMP JUMPDEST PUSH1 0x0 PUSH1 0x20 DUP3 DUP5 SUB SLT ISZERO PUSH2 0x1886 JUMPI DUP1 DUP2 REVERT JUMPDEST DUP2 MLOAD DUP1 ISZERO ISZERO DUP2 EQ PUSH2 0x1532 JUMPI DUP2 DUP3 REVERT JUMPDEST PUSH1 0x0 PUSH2 0x100 DUP1 DUP4 DUP6 SUB SLT ISZERO PUSH2 0x18A8 JUMPI DUP2 DUP3 REVERT JUMPDEST PUSH1 0x40 MLOAD SWAP1 DUP2 ADD SWAP1 PUSH8 0xFFFFFFFFFFFFFFFF DUP3 GT DUP2 DUP4 LT OR ISZERO PUSH2 0x18C7 JUMPI DUP3 DUP4 REVERT JUMPDEST DUP2 PUSH1 0x40 MSTORE DUP4 MLOAD DUP2 MSTORE PUSH1 0x20 DUP5 ADD MLOAD PUSH1 0x20 DUP3 ADD MSTORE PUSH1 0x40 DUP5 ADD MLOAD PUSH1 0x40 DUP3 ADD MSTORE PUSH1 0x60 DUP5 ADD MLOAD PUSH1 0x60 DUP3 ADD MSTORE PUSH1 0x80 DUP5 ADD MLOAD PUSH1 0x80 DUP3 ADD MSTORE PUSH1 0xA0 DUP5 ADD MLOAD PUSH1 0xA0 DUP3 ADD MSTORE PUSH1 0xC0 DUP5 ADD MLOAD PUSH1 0xC0 DUP3 ADD MSTORE PUSH1 0xE0 DUP5 ADD MLOAD PUSH1 0xE0 DUP3 ADD MSTORE DUP1 SWAP3 POP POP POP SWAP3 SWAP2 POP POP JUMP JUMPDEST PUSH1 0x0 PUSH1 0x20 DUP3 DUP5 SUB SLT ISZERO PUSH2 0x1931 JUMPI DUP1 DUP2 REVERT JUMPDEST POP CALLDATALOAD SWAP2 SWAP1 POP JUMP JUMPDEST PUSH1 0x0 PUSH1 0x20 DUP3 DUP5 SUB SLT ISZERO PUSH2 0x1949 JUMPI DUP1 DUP2 REVERT JUMPDEST POP MLOAD SWAP2 SWAP1 POP JUMP JUMPDEST PUSH1 0x0 PUSH13 0x2A32B9BA29BA3930BA32B3BC9 PUSH1 0x9D SHL DUP3 MSTORE DUP3 MLOAD PUSH2 0x1978 DUP2 PUSH1 0xD DUP6 ADD PUSH1 0x20 DUP8 ADD PUSH2 0x1B70 JUMP JUMPDEST SWAP2 SWAP1 SWAP2 ADD PUSH1 0xD ADD SWAP3 SWAP2 POP POP JUMP JUMPDEST PUSH1 0x1 PUSH1 0x1 PUSH1 0xA0 SHL SUB SWAP2 SWAP1 SWAP2 AND DUP2 MSTORE PUSH1 0x20 ADD SWAP1 JUMP JUMPDEST PUSH1 0x1 PUSH1 0x1 PUSH1 0xA0 SHL SUB SWAP3 SWAP1 SWAP3 AND DUP3 MSTORE PUSH1 0x20 DUP3 ADD MSTORE PUSH1 0x40 ADD SWAP1 JUMP JUMPDEST SWAP1 ISZERO ISZERO DUP2 MSTORE PUSH1 0x20 ADD SWAP1 JUMP JUMPDEST PUSH1 0x0 PUSH1 0x20 DUP3 MSTORE DUP3 MLOAD DUP1 PUSH1 0x20 DUP5 ADD MSTORE PUSH2 0x19DC DUP2 PUSH1 0x40 DUP6 ADD PUSH1 0x20 DUP8 ADD PUSH2 0x1B70 JUMP JUMPDEST PUSH1 0x1F ADD PUSH1 0x1F NOT AND SWAP2 SWAP1 SWAP2 ADD PUSH1 0x40 ADD SWAP3 SWAP2 POP POP JUMP JUMPDEST PUSH1 0x20 DUP1 DUP3 MSTORE PUSH1 0xB SWAP1 DUP3 ADD MSTORE PUSH11 0x85CDD1C985D1959DA5CDD PUSH1 0xAA SHL PUSH1 0x40 DUP3 ADD MSTORE PUSH1 0x60 ADD SWAP1 JUMP JUMPDEST PUSH1 0x20 DUP1 DUP3 MSTORE PUSH1 0x5 SWAP1 DUP3 ADD MSTORE PUSH5 0x85DD85B9D PUSH1 0xDA SHL PUSH1 0x40 DUP3 ADD MSTORE PUSH1 0x60 ADD SWAP1 JUMP JUMPDEST PUSH1 0x20 DUP1 DUP3 MSTORE PUSH1 0x1B SWAP1 DUP3 ADD MSTORE PUSH32 0x536166654D6174683A206164646974696F6E206F766572666C6F770000000000 PUSH1 0x40 DUP3 ADD MSTORE PUSH1 0x60 ADD SWAP1 JUMP JUMPDEST PUSH1 0x20 DUP1 DUP3 MSTORE PUSH1 0x21 SWAP1 DUP3 ADD MSTORE PUSH32 0x536166654D6174683A206D756C7469706C69636174696F6E206F766572666C6F PUSH1 0x40 DUP3 ADD MSTORE PUSH1 0x77 PUSH1 0xF8 SHL PUSH1 0x60 DUP3 ADD MSTORE PUSH1 0x80 ADD SWAP1 JUMP JUMPDEST PUSH1 0x20 DUP1 DUP3 MSTORE PUSH1 0x6 SWAP1 DUP3 ADD MSTORE PUSH6 0x85D985D5B1D PUSH1 0xD2 SHL PUSH1 0x40 DUP3 ADD MSTORE PUSH1 0x60 ADD SWAP1 JUMP JUMPDEST PUSH1 0x20 DUP1 DUP3 MSTORE PUSH1 0x7 SWAP1 DUP3 ADD MSTORE PUSH7 0x21736861726573 PUSH1 0xC8 SHL PUSH1 0x40 DUP3 ADD MSTORE PUSH1 0x60 ADD SWAP1 JUMP JUMPDEST PUSH1 0x20 DUP1 DUP3 MSTORE PUSH1 0xB SWAP1 DUP3 ADD MSTORE PUSH11 0x8585D5D1A1BDC9A5E9959 PUSH1 0xAA SHL PUSH1 0x40 DUP3 ADD MSTORE PUSH1 0x60 ADD SWAP1 JUMP JUMPDEST PUSH1 0x20 DUP1 DUP3 MSTORE PUSH1 0xA SWAP1 DUP3 ADD MSTORE PUSH10 0x85C1C9BDD1958DD1959 PUSH1 0xB2 SHL PUSH1 0x40 DUP3 ADD MSTORE PUSH1 0x60 ADD SWAP1 JUMP JUMPDEST SWAP1 DUP2 MSTORE PUSH1 0x20 ADD SWAP1 JUMP JUMPDEST SWAP3 DUP4 MSTORE PUSH1 0x20 DUP4 ADD SWAP2 SWAP1 SWAP2 MSTORE PUSH1 0x40 DUP3 ADD MSTORE PUSH1 0x60 ADD SWAP1 JUMP JUMPDEST SWAP4 DUP5 MSTORE PUSH1 0x20 DUP5 ADD SWAP3 SWAP1 SWAP3 MSTORE PUSH1 0x40 DUP4 ADD MSTORE PUSH1 0x60 DUP3 ADD MSTORE PUSH1 0x80 ADD SWAP1 JUMP JUMPDEST PUSH1 0x0 JUMPDEST DUP4 DUP2 LT ISZERO PUSH2 0x1B8B JUMPI DUP2 DUP2 ADD MLOAD DUP4 DUP3 ADD MSTORE PUSH1 0x20 ADD PUSH2 0x1B73 JUMP JUMPDEST DUP4 DUP2 GT ISZERO PUSH2 0x13A0 JUMPI POP POP PUSH1 0x0 SWAP2 ADD MSTORE JUMP JUMPDEST PUSH1 0x1 PUSH1 0x1 PUSH1 0xA0 SHL SUB DUP2 AND DUP2 EQ PUSH2 0x14ED JUMPI PUSH1 0x0 DUP1 REVERT INVALID LOG2 PUSH5 0x6970667358 0x22 SLT KECCAK256 RETURNDATACOPY SWAP16 SIGNEXTEND CREATE ADDMOD NOT SWAP11 0x2C ADDRESS SWAP2 SWAP5 CALL SWAP16 0xE6 RETURN 0x25 DUP3 STOP 0xB0 0xB5 MULMOD SSTORE 0xD2 0xAA PUSH3 0xA54E84 COINBASE 0xED 0x1E 0x21 PUSH5 0x736F6C6343 STOP MOD 0xC STOP CALLER ",
  "sha1": "cb705163c4670a01376045cf24efeee6306a4e01",
  "source": "// SPDX-License-Identifier: GPL-3.0\npragma solidity 0.6.12;\npragma experimental ABIEncoderV2;\n\nimport {BaseStrategy, StrategyParams} from \"../BaseStrategy.sol\";\n\n/*\n * This Strategy serves as both a mock Strategy for testing, and an example\n * for integrators on how to use BaseStrategy\n */\n\ncontract TestStrategy is BaseStrategy {\n    constructor(address _vault) public BaseStrategy(_vault) {}\n\n    function name() external override view returns (string memory) {\n        return string(abi.encodePacked(\"TestStrategy \", apiVersion()));\n    }\n\n    // NOTE: This is a test-only function to simulate losses\n    function _takeFunds(uint256 amount) public {\n        want.transfer(msg.sender, amount);\n    }\n\n    function estimatedTotalAssets() public override view returns (uint256) {\n        // For mock, this is just everything we have\n        return want.balanceOf(address(this));\n    }\n\n    function prepareReturn(uint256 _debtOutstanding)\n        internal\n        override\n        returns (\n            uint256 _profit,\n            uint256 _loss,\n            uint256 _debtPayment\n        )\n    {\n        // During testing, send this contract some tokens to simulate \"Rewards\"\n        uint256 totalAssets = want.balanceOf(address(this));\n        uint256 totalDebt = vault.strategies(address(this)).totalDebt;\n        if (totalAssets > _debtOutstanding) {\n            _debtPayment = _debtOutstanding;\n            totalAssets = totalAssets.sub(_debtOutstanding);\n        } else {\n            _debtPayment = totalAssets;\n            totalAssets = 0;\n        }\n        totalDebt = totalDebt.sub(_debtPayment);\n\n        if (totalAssets > totalDebt) {\n            _profit = totalAssets.sub(totalDebt);\n        } else {\n            _loss = totalDebt.sub(totalAssets);\n        }\n    }\n\n    function adjustPosition(uint256 _debtOutstanding) internal override {\n        // Whatever we have \"free\", consider it \"invested\" now\n    }\n\n    function liquidatePosition(uint256 _amountNeeded) internal override returns (uint256 _liquidatedAmount, uint256 _loss) {\n        uint256 totalAssets = want.balanceOf(address(this));\n        if (_amountNeeded > totalAssets) {\n            _liquidatedAmount = totalAssets;\n            _loss = _amountNeeded.sub(totalAssets);\n        } else {\n            _liquidatedAmount = _amountNeeded;\n        }\n    }\n\n    function prepareMigration(address _newStrategy) internal override {\n        // Nothing needed here because no additional tokens/tokenized positions for mock\n    }\n\n    function protectedTokens() internal override view returns (address[] memory) {\n        return new address[](0); // No additional tokens/tokenized positions for mock\n    }\n}\n",
  "sourcePath": "contracts/test/TestStrategy.sol",
  "type": "contract"
}