{
  "abi": [
    {
      "inputs": [],
      "stateMutability": "nonpayable",
      "type": "constructor"
    },
    {
      "inputs": [
        {
          "internalType": "address",
          "name": "_guest",
          "type": "address"
        },
        {
          "internalType": "uint256",
          "name": "_amount",
          "type": "uint256"
        }
      ],
      "name": "authorized",
      "outputs": [
        {
          "internalType": "bool",
          "name": "",
          "type": "bool"
        }
      ],
      "stateMutability": "view",
      "type": "function"
    },
    {
      "inputs": [],
      "name": "bouncer",
      "outputs": [
        {
          "internalType": "address",
          "name": "",
          "type": "address"
        }
      ],
      "stateMutability": "view",
      "type": "function"
    },
    {
      "inputs": [
        {
          "internalType": "address",
          "name": "",
          "type": "address"
        }
      ],
      "name": "guests",
      "outputs": [
        {
          "internalType": "bool",
          "name": "",
          "type": "bool"
        }
      ],
      "stateMutability": "view",
      "type": "function"
    },
    {
      "inputs": [
        {
          "internalType": "address[]",
          "name": "_guests",
          "type": "address[]"
        },
        {
          "internalType": "bool[]",
          "name": "_invited",
          "type": "bool[]"
        }
      ],
      "name": "setGuests",
      "outputs": [],
      "stateMutability": "nonpayable",
      "type": "function"
    },
    {
      "inputs": [],
      "name": "vault",
      "outputs": [
        {
          "internalType": "address",
          "name": "",
          "type": "address"
        }
      ],
      "stateMutability": "view",
      "type": "function"
    }
  ],
  "bytecode": "608060405234801561001057600080fd5b50600180546001600160a01b03191633179055610386806100326000396000f3fe608060405234801561001057600080fd5b50600436106100575760003560e01c80630eda85ee1461005c5780635ed7660e1461008557806377f32f8414610098578063c5336835146100ad578063fbfa77cf146100c2575b600080fd5b61006f61006a36600461025c565b6100ca565b60405161007c9190610345565b60405180910390f35b61006f61009336600461027e565b6100df565b6100ab6100a63660046102a8565b610102565b005b6100b56101de565b60405161007c9190610331565b6100b56101ed565b60026020526000908152604090205460ff1681565b6001600160a01b03821660009081526002602052604090205460ff165b92915050565b6001546001600160a01b0316331461011657fe5b82811461011f57fe5b60005b838110156101d757600085858381811061013857fe5b905060200201602081019061014d919061025c565b6001600160a01b03161415610161576101d7565b82828281811061016d57fe5b90506020020160208101906101829190610311565b6002600087878581811061019257fe5b90506020020160208101906101a7919061025c565b6001600160a01b031681526020810191909152604001600020805460ff1916911515919091179055600101610122565b5050505050565b6001546001600160a01b031681565b6000546001600160a01b031681565b80356001600160a01b03811681146100fc57600080fd5b60008083601f840112610224578182fd5b50813567ffffffffffffffff81111561023b578182fd5b602083019150836020808302850101111561025557600080fd5b9250929050565b60006020828403121561026d578081fd5b61027783836101fc565b9392505050565b60008060408385031215610290578081fd5b61029a84846101fc565b946020939093013593505050565b600080600080604085870312156102bd578182fd5b843567ffffffffffffffff808211156102d4578384fd5b6102e088838901610213565b909650945060208701359150808211156102f8578384fd5b5061030587828801610213565b95989497509550505050565b600060208284031215610322578081fd5b81358015158114610277578182fd5b6001600160a01b0391909116815260200190565b90151581526020019056fea2646970667358221220b03d274660c925b9f4808bc63dea8056058bc74b823d8c710229b04fdf2f4f9a64736f6c634300060c0033",
  "bytecodeSha1": "1c203e7532c095f2e3f83b9f7890e36a78047c2e",
  "compiler": {
    "evm_version": "istanbul",
    "optimizer": {
      "enabled": true,
      "runs": 200
    },
    "version": "0.6.12"
  },
  "contractName": "TestGuestList",
  "language": "Solidity",
  "natspec": {
    "details": "For a Vyper implementation of this contract containing additional functionality, see https://github.com/banteg/guest-list/blob/master/contracts/GuestList.vy",
    "kind": "dev",
    "methods": {
      "authorized(address,uint256)": {
        "details": "Note that `_amount` isn't checked to keep test setup simple, since from the vault tests' perspective this is a pass/fail call anyway.",
        "notice": "Check if a guest with a bag of a certain size is allowed into the party.",
        "params": {
          "_amount": "Not used. The amount of tokens the guest is bringing.",
          "_guest": "The guest's address to check."
        }
      },
      "constructor": {
        "details": "Note that since this is just for testing, you're unable to change `bouncer`."
      },
      "setGuests(address[],bool[])": {
        "notice": "Invite guests or kick them from the party.",
        "params": {
          "_guests": "The guests to add or update.",
          "_invited": "A flag for each guest at the matching index, inviting or uninviting the guest."
        }
      }
    },
    "notice": "A basic guest list contract for testing.",
    "version": 1
  },
  "opcodes": "PUSH1 0x80 PUSH1 0x40 MSTORE CALLVALUE DUP1 ISZERO PUSH2 0x10 JUMPI PUSH1 0x0 DUP1 REVERT JUMPDEST POP PUSH1 0x4 CALLDATASIZE LT PUSH2 0x57 JUMPI PUSH1 0x0 CALLDATALOAD PUSH1 0xE0 SHR DUP1 PUSH4 0xEDA85EE EQ PUSH2 0x5C JUMPI DUP1 PUSH4 0x5ED7660E EQ PUSH2 0x85 JUMPI DUP1 PUSH4 0x77F32F84 EQ PUSH2 0x98 JUMPI DUP1 PUSH4 0xC5336835 EQ PUSH2 0xAD JUMPI DUP1 PUSH4 0xFBFA77CF EQ PUSH2 0xC2 JUMPI JUMPDEST PUSH1 0x0 DUP1 REVERT JUMPDEST PUSH2 0x6F PUSH2 0x6A CALLDATASIZE PUSH1 0x4 PUSH2 0x25C JUMP JUMPDEST PUSH2 0xCA JUMP JUMPDEST PUSH1 0x40 MLOAD PUSH2 0x7C SWAP2 SWAP1 PUSH2 0x345 JUMP JUMPDEST PUSH1 0x40 MLOAD DUP1 SWAP2 SUB SWAP1 RETURN JUMPDEST PUSH2 0x6F PUSH2 0x93 CALLDATASIZE PUSH1 0x4 PUSH2 0x27E JUMP JUMPDEST PUSH2 0xDF JUMP JUMPDEST PUSH2 0xAB PUSH2 0xA6 CALLDATASIZE PUSH1 0x4 PUSH2 0x2A8 JUMP JUMPDEST PUSH2 0x102 JUMP JUMPDEST STOP JUMPDEST PUSH2 0xB5 PUSH2 0x1DE JUMP JUMPDEST PUSH1 0x40 MLOAD PUSH2 0x7C SWAP2 SWAP1 PUSH2 0x331 JUMP JUMPDEST PUSH2 0xB5 PUSH2 0x1ED JUMP JUMPDEST PUSH1 0x2 PUSH1 0x20 MSTORE PUSH1 0x0 SWAP1 DUP2 MSTORE PUSH1 0x40 SWAP1 KECCAK256 SLOAD PUSH1 0xFF AND DUP2 JUMP JUMPDEST PUSH1 0x1 PUSH1 0x1 PUSH1 0xA0 SHL SUB DUP3 AND PUSH1 0x0 SWAP1 DUP2 MSTORE PUSH1 0x2 PUSH1 0x20 MSTORE PUSH1 0x40 SWAP1 KECCAK256 SLOAD PUSH1 0xFF AND JUMPDEST SWAP3 SWAP2 POP POP JUMP JUMPDEST PUSH1 0x1 SLOAD PUSH1 0x1 PUSH1 0x1 PUSH1 0xA0 SHL SUB AND CALLER EQ PUSH2 0x116 JUMPI INVALID JUMPDEST DUP3 DUP2 EQ PUSH2 0x11F JUMPI INVALID JUMPDEST PUSH1 0x0 JUMPDEST DUP4 DUP2 LT ISZERO PUSH2 0x1D7 JUMPI PUSH1 0x0 DUP6 DUP6 DUP4 DUP2 DUP2 LT PUSH2 0x138 JUMPI INVALID JUMPDEST SWAP1 POP PUSH1 0x20 MUL ADD PUSH1 0x20 DUP2 ADD SWAP1 PUSH2 0x14D SWAP2 SWAP1 PUSH2 0x25C JUMP JUMPDEST PUSH1 0x1 PUSH1 0x1 PUSH1 0xA0 SHL SUB AND EQ ISZERO PUSH2 0x161 JUMPI PUSH2 0x1D7 JUMP JUMPDEST DUP3 DUP3 DUP3 DUP2 DUP2 LT PUSH2 0x16D JUMPI INVALID JUMPDEST SWAP1 POP PUSH1 0x20 MUL ADD PUSH1 0x20 DUP2 ADD SWAP1 PUSH2 0x182 SWAP2 SWAP1 PUSH2 0x311 JUMP JUMPDEST PUSH1 0x2 PUSH1 0x0 DUP8 DUP8 DUP6 DUP2 DUP2 LT PUSH2 0x192 JUMPI INVALID JUMPDEST SWAP1 POP PUSH1 0x20 MUL ADD PUSH1 0x20 DUP2 ADD SWAP1 PUSH2 0x1A7 SWAP2 SWAP1 PUSH2 0x25C JUMP JUMPDEST PUSH1 0x1 PUSH1 0x1 PUSH1 0xA0 SHL SUB AND DUP2 MSTORE PUSH1 0x20 DUP2 ADD SWAP2 SWAP1 SWAP2 MSTORE PUSH1 0x40 ADD PUSH1 0x0 KECCAK256 DUP1 SLOAD PUSH1 0xFF NOT AND SWAP2 ISZERO ISZERO SWAP2 SWAP1 SWAP2 OR SWAP1 SSTORE PUSH1 0x1 ADD PUSH2 0x122 JUMP JUMPDEST POP POP POP POP POP JUMP JUMPDEST PUSH1 0x1 SLOAD PUSH1 0x1 PUSH1 0x1 PUSH1 0xA0 SHL SUB AND DUP2 JUMP JUMPDEST PUSH1 0x0 SLOAD PUSH1 0x1 PUSH1 0x1 PUSH1 0xA0 SHL SUB AND DUP2 JUMP JUMPDEST DUP1 CALLDATALOAD PUSH1 0x1 PUSH1 0x1 PUSH1 0xA0 SHL SUB DUP2 AND DUP2 EQ PUSH2 0xFC JUMPI PUSH1 0x0 DUP1 REVERT JUMPDEST PUSH1 0x0 DUP1 DUP4 PUSH1 0x1F DUP5 ADD SLT PUSH2 0x224 JUMPI DUP2 DUP3 REVERT JUMPDEST POP DUP2 CALLDATALOAD PUSH8 0xFFFFFFFFFFFFFFFF DUP2 GT ISZERO PUSH2 0x23B JUMPI DUP2 DUP3 REVERT JUMPDEST PUSH1 0x20 DUP4 ADD SWAP2 POP DUP4 PUSH1 0x20 DUP1 DUP4 MUL DUP6 ADD ADD GT ISZERO PUSH2 0x255 JUMPI PUSH1 0x0 DUP1 REVERT JUMPDEST SWAP3 POP SWAP3 SWAP1 POP JUMP JUMPDEST PUSH1 0x0 PUSH1 0x20 DUP3 DUP5 SUB SLT ISZERO PUSH2 0x26D JUMPI DUP1 DUP2 REVERT JUMPDEST PUSH2 0x277 DUP4 DUP4 PUSH2 0x1FC JUMP JUMPDEST SWAP4 SWAP3 POP POP POP JUMP JUMPDEST PUSH1 0x0 DUP1 PUSH1 0x40 DUP4 DUP6 SUB SLT ISZERO PUSH2 0x290 JUMPI DUP1 DUP2 REVERT JUMPDEST PUSH2 0x29A DUP5 DUP5 PUSH2 0x1FC JUMP JUMPDEST SWAP5 PUSH1 0x20 SWAP4 SWAP1 SWAP4 ADD CALLDATALOAD SWAP4 POP POP POP JUMP JUMPDEST PUSH1 0x0 DUP1 PUSH1 0x0 DUP1 PUSH1 0x40 DUP6 DUP8 SUB SLT ISZERO PUSH2 0x2BD JUMPI DUP2 DUP3 REVERT JUMPDEST DUP5 CALLDATALOAD PUSH8 0xFFFFFFFFFFFFFFFF DUP1 DUP3 GT ISZERO PUSH2 0x2D4 JUMPI DUP4 DUP5 REVERT JUMPDEST PUSH2 0x2E0 DUP9 DUP4 DUP10 ADD PUSH2 0x213 JUMP JUMPDEST SWAP1 SWAP7 POP SWAP5 POP PUSH1 0x20 DUP8 ADD CALLDATALOAD SWAP2 POP DUP1 DUP3 GT ISZERO PUSH2 0x2F8 JUMPI DUP4 DUP5 REVERT JUMPDEST POP PUSH2 0x305 DUP8 DUP3 DUP9 ADD PUSH2 0x213 JUMP JUMPDEST SWAP6 SWAP9 SWAP5 SWAP8 POP SWAP6 POP POP POP POP JUMP JUMPDEST PUSH1 0x0 PUSH1 0x20 DUP3 DUP5 SUB SLT ISZERO PUSH2 0x322 JUMPI DUP1 DUP2 REVERT JUMPDEST DUP2 CALLDATALOAD DUP1 ISZERO ISZERO DUP2 EQ PUSH2 0x277 JUMPI DUP2 DUP3 REVERT JUMPDEST PUSH1 0x1 PUSH1 0x1 PUSH1 0xA0 SHL SUB SWAP2 SWAP1 SWAP2 AND DUP2 MSTORE PUSH1 0x20 ADD SWAP1 JUMP JUMPDEST SWAP1 ISZERO ISZERO DUP2 MSTORE PUSH1 0x20 ADD SWAP1 JUMP INVALID LOG2 PUSH5 0x6970667358 0x22 SLT KECCAK256 0xB0 RETURNDATASIZE 0x27 CHAINID PUSH1 0xC9 0x25 0xB9 DELEGATECALL DUP1 DUP12 0xC6 RETURNDATASIZE 0xEA DUP1 JUMP SDIV DUP12 0xC7 0x4B DUP3 RETURNDATASIZE DUP13 PUSH18 0x229B04FDF2F4F9A64736F6C634300060C00 CALLER ",
  "sha1": "5e9a0415c6e745960c1b4f10a8d68e8a9d5880e8",
  "source": "// SPDX-License-Identifier: GPL-3.0\npragma solidity >=0.6.0 <0.7.0;\npragma experimental ABIEncoderV2;\n\n/**\n * @notice A basic guest list contract for testing.\n * @dev For a Vyper implementation of this contract containing additional\n * functionality, see https://github.com/banteg/guest-list/blob/master/contracts/GuestList.vy\n */\ncontract TestGuestList {\n    address public vault;\n    address public bouncer;\n    mapping(address => bool) public guests;\n\n    /**\n     * @notice Create the test guest list, setting the message sender as\n     * `bouncer`.\n     * @dev Note that since this is just for testing, you're unable to change\n     * `bouncer`.\n     */\n    constructor() public {\n        bouncer = msg.sender;\n    }\n\n    /**\n     * @notice Invite guests or kick them from the party.\n     * @param _guests The guests to add or update.\n     * @param _invited A flag for each guest at the matching index, inviting or\n     * uninviting the guest.\n     */\n    function setGuests(address[] calldata _guests, bool[] calldata _invited) external {\n        assert(msg.sender == bouncer);\n        assert(_guests.length == _invited.length);\n        for (uint256 i = 0; i < _guests.length; i++) {\n            if (_guests[i] == address(0)) {\n                break;\n            }\n            guests[_guests[i]] = _invited[i];\n        }\n    }\n\n    /**\n     * @notice Check if a guest with a bag of a certain size is allowed into\n     * the party.\n     * @dev Note that `_amount` isn't checked to keep test setup simple, since\n     * from the vault tests' perspective this is a pass/fail call anyway.\n     * @param _guest The guest's address to check.\n     * @param _amount Not used. The amount of tokens the guest is bringing.\n     */\n    function authorized(address _guest, uint256 _amount) external view returns (bool) {\n        return guests[_guest];\n    }\n}\n",
  "sourcePath": "contracts/test/TestGuestList.sol",
  "type": "contract"
}